{
  "contracts/Identifi.sol": {
    "Identifi": {
      "abi": [
        {
          "inputs": [
            {
              "internalType": "string",
              "name": "_username",
              "type": "string"
            },
            {
              "components": [
                {
                  "internalType": "string",
                  "name": "firstName",
                  "type": "string"
                },
                {
                  "internalType": "string",
                  "name": "lastName",
                  "type": "string"
                },
                {
                  "internalType": "string",
                  "name": "email",
                  "type": "string"
                },
                {
                  "internalType": "string",
                  "name": "homeAddress",
                  "type": "string"
                },
                {
                  "internalType": "string",
                  "name": "phoneNumber",
                  "type": "string"
                },
                {
                  "internalType": "string",
                  "name": "dateOfBirth",
                  "type": "string"
                }
              ],
              "internalType": "struct Identifi.BasicInfo",
              "name": "_basicInfo",
              "type": "tuple"
            },
            {
              "components": [
                {
                  "internalType": "string",
                  "name": "jobTitle",
                  "type": "string"
                },
                {
                  "internalType": "string",
                  "name": "info",
                  "type": "string"
                },
                {
                  "internalType": "string",
                  "name": "education",
                  "type": "string"
                },
                {
                  "internalType": "string",
                  "name": "workHistory",
                  "type": "string"
                },
                {
                  "internalType": "string[]",
                  "name": "skills",
                  "type": "string[]"
                },
                {
                  "internalType": "string",
                  "name": "imageURL",
                  "type": "string"
                }
              ],
              "internalType": "struct Identifi.ProfesionalInfo",
              "name": "_profesionalInfo",
              "type": "tuple"
            },
            {
              "components": [
                {
                  "internalType": "string",
                  "name": "x",
                  "type": "string"
                },
                {
                  "internalType": "string",
                  "name": "instagram",
                  "type": "string"
                },
                {
                  "internalType": "string",
                  "name": "youtube",
                  "type": "string"
                },
                {
                  "internalType": "string",
                  "name": "linkedin",
                  "type": "string"
                },
                {
                  "internalType": "string",
                  "name": "tiktok",
                  "type": "string"
                }
              ],
              "internalType": "struct Identifi.SocialLinks",
              "name": "_socialLinks",
              "type": "tuple"
            },
            {
              "components": [
                {
                  "internalType": "bool",
                  "name": "homeAddress",
                  "type": "bool"
                },
                {
                  "internalType": "bool",
                  "name": "dateOfBirth",
                  "type": "bool"
                },
                {
                  "internalType": "bool",
                  "name": "education",
                  "type": "bool"
                },
                {
                  "internalType": "bool",
                  "name": "workHistory",
                  "type": "bool"
                },
                {
                  "internalType": "bool",
                  "name": "phoneNumber",
                  "type": "bool"
                }
              ],
              "internalType": "struct Identifi.Visibility",
              "name": "_visibility",
              "type": "tuple"
            }
          ],
          "name": "createUser",
          "outputs": [],
          "stateMutability": "nonpayable",
          "type": "function"
        },
        {
          "inputs": [
            {
              "internalType": "string",
              "name": "_username",
              "type": "string"
            },
            {
              "components": [
                {
                  "internalType": "string",
                  "name": "firstName",
                  "type": "string"
                },
                {
                  "internalType": "string",
                  "name": "lastName",
                  "type": "string"
                },
                {
                  "internalType": "string",
                  "name": "email",
                  "type": "string"
                },
                {
                  "internalType": "string",
                  "name": "homeAddress",
                  "type": "string"
                },
                {
                  "internalType": "string",
                  "name": "phoneNumber",
                  "type": "string"
                },
                {
                  "internalType": "string",
                  "name": "dateOfBirth",
                  "type": "string"
                }
              ],
              "internalType": "struct Identifi.BasicInfo",
              "name": "_basicInfo",
              "type": "tuple"
            },
            {
              "components": [
                {
                  "internalType": "string",
                  "name": "jobTitle",
                  "type": "string"
                },
                {
                  "internalType": "string",
                  "name": "info",
                  "type": "string"
                },
                {
                  "internalType": "string",
                  "name": "education",
                  "type": "string"
                },
                {
                  "internalType": "string",
                  "name": "workHistory",
                  "type": "string"
                },
                {
                  "internalType": "string[]",
                  "name": "skills",
                  "type": "string[]"
                },
                {
                  "internalType": "string",
                  "name": "imageURL",
                  "type": "string"
                }
              ],
              "internalType": "struct Identifi.ProfesionalInfo",
              "name": "_profesionalInfo",
              "type": "tuple"
            },
            {
              "components": [
                {
                  "internalType": "string",
                  "name": "x",
                  "type": "string"
                },
                {
                  "internalType": "string",
                  "name": "instagram",
                  "type": "string"
                },
                {
                  "internalType": "string",
                  "name": "youtube",
                  "type": "string"
                },
                {
                  "internalType": "string",
                  "name": "linkedin",
                  "type": "string"
                },
                {
                  "internalType": "string",
                  "name": "tiktok",
                  "type": "string"
                }
              ],
              "internalType": "struct Identifi.SocialLinks",
              "name": "_socialLinks",
              "type": "tuple"
            },
            {
              "components": [
                {
                  "internalType": "bool",
                  "name": "homeAddress",
                  "type": "bool"
                },
                {
                  "internalType": "bool",
                  "name": "dateOfBirth",
                  "type": "bool"
                },
                {
                  "internalType": "bool",
                  "name": "education",
                  "type": "bool"
                },
                {
                  "internalType": "bool",
                  "name": "workHistory",
                  "type": "bool"
                },
                {
                  "internalType": "bool",
                  "name": "phoneNumber",
                  "type": "bool"
                }
              ],
              "internalType": "struct Identifi.Visibility",
              "name": "_visibility",
              "type": "tuple"
            }
          ],
          "name": "editUser",
          "outputs": [],
          "stateMutability": "nonpayable",
          "type": "function"
        },
        {
          "inputs": [
            {
              "internalType": "address",
              "name": "_address",
              "type": "address"
            }
          ],
          "name": "getUserByAddress",
          "outputs": [
            {
              "components": [
                {
                  "internalType": "string",
                  "name": "firstName",
                  "type": "string"
                },
                {
                  "internalType": "string",
                  "name": "lastName",
                  "type": "string"
                },
                {
                  "internalType": "string",
                  "name": "email",
                  "type": "string"
                },
                {
                  "internalType": "string",
                  "name": "homeAddress",
                  "type": "string"
                },
                {
                  "internalType": "string",
                  "name": "phoneNumber",
                  "type": "string"
                },
                {
                  "internalType": "string",
                  "name": "dateOfBirth",
                  "type": "string"
                }
              ],
              "internalType": "struct Identifi.BasicInfo",
              "name": "basicInfo",
              "type": "tuple"
            },
            {
              "components": [
                {
                  "internalType": "string",
                  "name": "jobTitle",
                  "type": "string"
                },
                {
                  "internalType": "string",
                  "name": "info",
                  "type": "string"
                },
                {
                  "internalType": "string",
                  "name": "education",
                  "type": "string"
                },
                {
                  "internalType": "string",
                  "name": "workHistory",
                  "type": "string"
                },
                {
                  "internalType": "string[]",
                  "name": "skills",
                  "type": "string[]"
                },
                {
                  "internalType": "string",
                  "name": "imageURL",
                  "type": "string"
                }
              ],
              "internalType": "struct Identifi.ProfesionalInfo",
              "name": "professionalInfo",
              "type": "tuple"
            },
            {
              "components": [
                {
                  "internalType": "string",
                  "name": "x",
                  "type": "string"
                },
                {
                  "internalType": "string",
                  "name": "instagram",
                  "type": "string"
                },
                {
                  "internalType": "string",
                  "name": "youtube",
                  "type": "string"
                },
                {
                  "internalType": "string",
                  "name": "linkedin",
                  "type": "string"
                },
                {
                  "internalType": "string",
                  "name": "tiktok",
                  "type": "string"
                }
              ],
              "internalType": "struct Identifi.SocialLinks",
              "name": "socialLinks",
              "type": "tuple"
            },
            {
              "components": [
                {
                  "internalType": "bool",
                  "name": "homeAddress",
                  "type": "bool"
                },
                {
                  "internalType": "bool",
                  "name": "dateOfBirth",
                  "type": "bool"
                },
                {
                  "internalType": "bool",
                  "name": "education",
                  "type": "bool"
                },
                {
                  "internalType": "bool",
                  "name": "workHistory",
                  "type": "bool"
                },
                {
                  "internalType": "bool",
                  "name": "phoneNumber",
                  "type": "bool"
                }
              ],
              "internalType": "struct Identifi.Visibility",
              "name": "visibility",
              "type": "tuple"
            }
          ],
          "stateMutability": "view",
          "type": "function"
        },
        {
          "inputs": [
            {
              "internalType": "string",
              "name": "_username",
              "type": "string"
            }
          ],
          "name": "getUserByUsername",
          "outputs": [
            {
              "components": [
                {
                  "internalType": "string",
                  "name": "firstName",
                  "type": "string"
                },
                {
                  "internalType": "string",
                  "name": "lastName",
                  "type": "string"
                },
                {
                  "internalType": "string",
                  "name": "email",
                  "type": "string"
                },
                {
                  "internalType": "string",
                  "name": "homeAddress",
                  "type": "string"
                },
                {
                  "internalType": "string",
                  "name": "phoneNumber",
                  "type": "string"
                },
                {
                  "internalType": "string",
                  "name": "dateOfBirth",
                  "type": "string"
                }
              ],
              "internalType": "struct Identifi.BasicInfo",
              "name": "basicInfo",
              "type": "tuple"
            },
            {
              "components": [
                {
                  "internalType": "string",
                  "name": "jobTitle",
                  "type": "string"
                },
                {
                  "internalType": "string",
                  "name": "info",
                  "type": "string"
                },
                {
                  "internalType": "string",
                  "name": "education",
                  "type": "string"
                },
                {
                  "internalType": "string",
                  "name": "workHistory",
                  "type": "string"
                },
                {
                  "internalType": "string[]",
                  "name": "skills",
                  "type": "string[]"
                },
                {
                  "internalType": "string",
                  "name": "imageURL",
                  "type": "string"
                }
              ],
              "internalType": "struct Identifi.ProfesionalInfo",
              "name": "professionalInfo",
              "type": "tuple"
            },
            {
              "components": [
                {
                  "internalType": "string",
                  "name": "x",
                  "type": "string"
                },
                {
                  "internalType": "string",
                  "name": "instagram",
                  "type": "string"
                },
                {
                  "internalType": "string",
                  "name": "youtube",
                  "type": "string"
                },
                {
                  "internalType": "string",
                  "name": "linkedin",
                  "type": "string"
                },
                {
                  "internalType": "string",
                  "name": "tiktok",
                  "type": "string"
                }
              ],
              "internalType": "struct Identifi.SocialLinks",
              "name": "socialLinks",
              "type": "tuple"
            },
            {
              "components": [
                {
                  "internalType": "bool",
                  "name": "homeAddress",
                  "type": "bool"
                },
                {
                  "internalType": "bool",
                  "name": "dateOfBirth",
                  "type": "bool"
                },
                {
                  "internalType": "bool",
                  "name": "education",
                  "type": "bool"
                },
                {
                  "internalType": "bool",
                  "name": "workHistory",
                  "type": "bool"
                },
                {
                  "internalType": "bool",
                  "name": "phoneNumber",
                  "type": "bool"
                }
              ],
              "internalType": "struct Identifi.Visibility",
              "name": "visibility",
              "type": "tuple"
            }
          ],
          "stateMutability": "view",
          "type": "function"
        },
        {
          "inputs": [
            {
              "internalType": "address",
              "name": "_address",
              "type": "address"
            }
          ],
          "name": "getUsernameByddress",
          "outputs": [
            {
              "internalType": "string",
              "name": "",
              "type": "string"
            }
          ],
          "stateMutability": "view",
          "type": "function"
        },
        {
          "inputs": [
            {
              "internalType": "string",
              "name": "_username",
              "type": "string"
            }
          ],
          "name": "getVisibility",
          "outputs": [
            {
              "components": [
                {
                  "internalType": "bool",
                  "name": "homeAddress",
                  "type": "bool"
                },
                {
                  "internalType": "bool",
                  "name": "dateOfBirth",
                  "type": "bool"
                },
                {
                  "internalType": "bool",
                  "name": "education",
                  "type": "bool"
                },
                {
                  "internalType": "bool",
                  "name": "workHistory",
                  "type": "bool"
                },
                {
                  "internalType": "bool",
                  "name": "phoneNumber",
                  "type": "bool"
                }
              ],
              "internalType": "struct Identifi.Visibility",
              "name": "",
              "type": "tuple"
            }
          ],
          "stateMutability": "view",
          "type": "function"
        },
        {
          "inputs": [
            {
              "internalType": "string",
              "name": "_username",
              "type": "string"
            },
            {
              "internalType": "bool",
              "name": "education",
              "type": "bool"
            },
            {
              "internalType": "bool",
              "name": "workHistory",
              "type": "bool"
            },
            {
              "internalType": "bool",
              "name": "phoneNumber",
              "type": "bool"
            },
            {
              "internalType": "bool",
              "name": "dateOfBirth",
              "type": "bool"
            },
            {
              "internalType": "bool",
              "name": "homeAddress",
              "type": "bool"
            }
          ],
          "name": "setVisibility",
          "outputs": [],
          "stateMutability": "nonpayable",
          "type": "function"
        }
      ],
      "evm": {
        "bytecode": {
          "linkReferences": {},
          "object": "6080604052348015600f57600080fd5b506122f08061001f6000396000f3fe608060405234801561001057600080fd5b506004361061007d5760003560e01c8063bb6228b01161005b578063bb6228b0146100e1578063d1577cac146100f6578063d17d15ec14610109578063f86a29c71461012957600080fd5b8063320ba8f71461008257806369c212f6146100ab5780639f42af63146100ce575b600080fd5b6100956100903660046117db565b61013c565b6040516100a29190611817565b60405180910390f35b6100be6100b9366004611860565b61022f565b6040516100a29493929190611a4c565b6100be6100dc3660046117db565b6103ba565b6100f46100ef366004611eb0565b610f68565b005b6100f4610104366004612089565b611251565b61011c610117366004611860565b611320565b6040516100a29190612117565b6100f4610137366004611eb0565b6113cc565b6040805160a081018252600080825260208201819052918101829052606081018290526080810191909152600082604051610177919061212a565b9081526040519081900360200190206012015460ff166101b25760405162461bcd60e51b81526004016101a990612146565b60405180910390fd5b6000826040516101c2919061212a565b90815260408051918290036020908101832060a0840183526014015460ff8082161515855261010082048116151592850192909252620100008104821615159284019290925263010000008204811615156060840152640100000000909104161515608082015292915050565b6102686040518060c001604052806060815260200160608152602001606081526020016060815260200160608152602001606081525090565b6102a16040518060c001604052806060815260200160608152602001606081526020016060815260200160608152602001606081525090565b6102d36040518060a0016040528060608152602001606081526020016060815260200160608152602001606081525090565b6040805160a0810182526000808252602082018190529181018290526060810182905260808101919091526001600160a01b0385166000908152600160205260408120805461032190612173565b80601f016020809104026020016040519081016040528092919081815260200182805461034d90612173565b801561039a5780601f1061036f5761010080835404028352916020019161039a565b820191906000526020600020905b81548152906001019060200180831161037d57829003601f168201915b505050505090506103aa816103ba565b9450945094509450509193509193565b6103f36040518060c001604052806060815260200160608152602001606081526020016060815260200160608152602001606081525090565b61042c6040518060c001604052806060815260200160608152602001606081526020016060815260200160608152602001606081525090565b61045e6040518060a0016040528060608152602001606081526020016060815260200160608152602001606081525090565b6040805160a081018252600080825260208201819052918101829052606081018290526080810191909152600085604051610499919061212a565b9081526040519081900360200190206012015460ff166104cb5760405162461bcd60e51b81526004016101a990612146565b600080866040516104dc919061212a565b908152602001604051809103902090506040518060c0016040528082600001805461050690612173565b80601f016020809104026020016040519081016040528092919081815260200182805461053290612173565b801561057f5780601f106105545761010080835404028352916020019161057f565b820191906000526020600020905b81548152906001019060200180831161056257829003601f168201915b5050505050815260200182600101805461059890612173565b80601f01602080910402602001604051908101604052809291908181526020018280546105c490612173565b80156106115780601f106105e657610100808354040283529160200191610611565b820191906000526020600020905b8154815290600101906020018083116105f457829003601f168201915b5050505050815260200182600301805461062a90612173565b80601f016020809104026020016040519081016040528092919081815260200182805461065690612173565b80156106a35780601f10610678576101008083540402835291602001916106a3565b820191906000526020600020905b81548152906001019060200180831161068657829003601f168201915b505050505081526020018260040180546106bc90612173565b80601f01602080910402602001604051908101604052809291908181526020018280546106e890612173565b80156107355780601f1061070a57610100808354040283529160200191610735565b820191906000526020600020905b81548152906001019060200180831161071857829003601f168201915b5050505050815260200182600501805461074e90612173565b80601f016020809104026020016040519081016040528092919081815260200182805461077a90612173565b80156107c75780601f1061079c576101008083540402835291602001916107c7565b820191906000526020600020905b8154815290600101906020018083116107aa57829003601f168201915b505050505081526020018260060180546107e090612173565b80601f016020809104026020016040519081016040528092919081815260200182805461080c90612173565b80156108595780601f1061082e57610100808354040283529160200191610859565b820191906000526020600020905b81548152906001019060200180831161083c57829003601f168201915b505050505081525094506040518060c0016040528082600d01805461087d90612173565b80601f01602080910402602001604051908101604052809291908181526020018280546108a990612173565b80156108f65780601f106108cb576101008083540402835291602001916108f6565b820191906000526020600020905b8154815290600101906020018083116108d957829003601f168201915b5050505050815260200182600f01805461090f90612173565b80601f016020809104026020016040519081016040528092919081815260200182805461093b90612173565b80156109885780601f1061095d57610100808354040283529160200191610988565b820191906000526020600020905b81548152906001019060200180831161096b57829003601f168201915b5050505050815260200182600e0180546109a190612173565b80601f01602080910402602001604051908101604052809291908181526020018280546109cd90612173565b8015610a1a5780601f106109ef57610100808354040283529160200191610a1a565b820191906000526020600020905b8154815290600101906020018083116109fd57829003601f168201915b50505050508152602001826007018054610a3390612173565b80601f0160208091040260200160405190810160405280929190818152602001828054610a5f90612173565b8015610aac5780601f10610a8157610100808354040283529160200191610aac565b820191906000526020600020905b815481529060010190602001808311610a8f57829003601f168201915b5050505050815260200182601001805480602002602001604051908101604052809291908181526020016000905b82821015610b86578382906000526020600020018054610af990612173565b80601f0160208091040260200160405190810160405280929190818152602001828054610b2590612173565b8015610b725780601f10610b4757610100808354040283529160200191610b72565b820191906000526020600020905b815481529060010190602001808311610b5557829003601f168201915b505050505081526020019060010190610ada565b505050508152602001826011018054610b9e90612173565b80601f0160208091040260200160405190810160405280929190818152602001828054610bca90612173565b8015610c175780601f10610bec57610100808354040283529160200191610c17565b820191906000526020600020905b815481529060010190602001808311610bfa57829003601f168201915b505050505081525093506040518060a00160405280826008018054610c3b90612173565b80601f0160208091040260200160405190810160405280929190818152602001828054610c6790612173565b8015610cb45780601f10610c8957610100808354040283529160200191610cb4565b820191906000526020600020905b815481529060010190602001808311610c9757829003601f168201915b50505050508152602001826009018054610ccd90612173565b80601f0160208091040260200160405190810160405280929190818152602001828054610cf990612173565b8015610d465780601f10610d1b57610100808354040283529160200191610d46565b820191906000526020600020905b815481529060010190602001808311610d2957829003601f168201915b5050505050815260200182600a018054610d5f90612173565b80601f0160208091040260200160405190810160405280929190818152602001828054610d8b90612173565b8015610dd85780601f10610dad57610100808354040283529160200191610dd8565b820191906000526020600020905b815481529060010190602001808311610dbb57829003601f168201915b5050505050815260200182600b018054610df190612173565b80601f0160208091040260200160405190810160405280929190818152602001828054610e1d90612173565b8015610e6a5780601f10610e3f57610100808354040283529160200191610e6a565b820191906000526020600020905b815481529060010190602001808311610e4d57829003601f168201915b5050505050815260200182600c018054610e8390612173565b80601f0160208091040260200160405190810160405280929190818152602001828054610eaf90612173565b8015610efc5780601f10610ed157610100808354040283529160200191610efc565b820191906000526020600020905b815481529060010190602001808311610edf57829003601f168201915b5050509190925250506040805160a08101825260149093015460ff80821615158552610100820481161515602086015262010000820481161515928501929092526301000000810482161515606085015264010000000090041615156080830152949693955092915050565b84600281604051610f79919061212a565b9081526040519081900360200190205460ff1615610fd95760405162461bcd60e51b815260206004820152601860248201527f557365726e616d6520616c7265616479206578697374732e000000000000000060448201526064016101a9565b60008087604051610fea919061212a565b9081526040519081900360200190208651909150819061100a90826121fc565b506020860151600182019061101f90826121fc565b506002810161102e88826121fc565b506040860151600382019061104390826121fc565b506060860151600482019061105890826121fc565b5060a0860151600682019061106d90826121fc565b506080860151600582019061108290826121fc565b508351600882019061109490826121fc565b50602084015160098201906110a990826121fc565b506040840151600a8201906110be90826121fc565b506060840151600b8201906110d390826121fc565b506080840151600c8201906110e890826121fc565b508451600d8201906110fa90826121fc565b506040850151600e82019061110f90826121fc565b506060850151600782019061112490826121fc565b506020850151600f82019061113990826121fc565b5060808501518051611155916010840191602090910190611617565b5060a0850151601182019061116a90826121fc565b50825160148201805460208087015160408089015160608a015160808b015115156401000000000264ff000000001991151563010000000263ff0000001993151562010000029390931663ffff0000199515156101000261ff00199a15159a909a1661ffff199098169790971798909817939093169490941793909317169390931790915560128301805460ff191660019081179091553360009081529252902061121588826121fc565b506001600288604051611228919061212a565b908152604051908190036020019020805491151560ff1990921691909117905550505050505050565b600086604051611261919061212a565b9081526040519081900360200190206012015460ff166112935760405162461bcd60e51b81526004016101a990612146565b600080876040516112a4919061212a565b908152604051602091819003919091019020601401805463ffff00001916620100009715159790970263ff0000001916969096176301000000951515959095029490941764ff0000ff0019166401000000009315159390930261ff00191692909217610100911515919091021760ff1916901515179091555050565b6001600160a01b038116600090815260016020526040902080546060919061134790612173565b80601f016020809104026020016040519081016040528092919081815260200182805461137390612173565b80156113c05780601f10611395576101008083540402835291602001916113c0565b820191906000526020600020905b8154815290600101906020018083116113a357829003601f168201915b50505050509050919050565b6000856040516113dc919061212a565b9081526040519081900360200190206012015460ff1661140e5760405162461bcd60e51b81526004016101a990612146565b6000808660405161141f919061212a565b9081526040519081900360200190208551909150819061143f90826121fc565b506020850151600182019061145490826121fc565b506040850151600382019061146990826121fc565b506060850151600482019061147e90826121fc565b5060a0850151600682019061149390826121fc565b50608085015160058201906114a890826121fc565b50825160088201906114ba90826121fc565b50602083015160098201906114cf90826121fc565b506040830151600a8201906114e490826121fc565b506060830151600b8201906114f990826121fc565b506080830151600c82019061150e90826121fc565b508351600d82019061152090826121fc565b506040840151600e82019061153590826121fc565b506060840151600782019061154a90826121fc565b506020840151600f82019061155f90826121fc565b506080840151805161157b916010840191602090910190611617565b5060a0840151601182019061159090826121fc565b5081516014909101805460208401516040850151606086015160809096015115156401000000000264ff000000001996151563010000000263ff0000001992151562010000029290921663ffff0000199315156101000261ff00199715159790971661ffff1990951694909417959095179190911691909117179290921617905550505050565b82805482825590600052602060002090810192821561165d579160200282015b8281111561165d578251829061164d90826121fc565b5091602001919060010190611637565b5061166992915061166d565b5090565b80821115611669576000611681828261168a565b5060010161166d565b50805461169690612173565b6000825580601f106116a6575050565b601f0160209004906000526020600020908101906116c491906116c7565b50565b5b8082111561166957600081556001016116c8565b634e487b7160e01b600052604160045260246000fd5b60405160c081016001600160401b0381118282101715611714576117146116dc565b60405290565b60405160a081016001600160401b0381118282101715611714576117146116dc565b604051601f8201601f191681016001600160401b0381118282101715611764576117646116dc565b604052919050565b600082601f83011261177d57600080fd5b81356001600160401b03811115611796576117966116dc565b6117a9601f8201601f191660200161173c565b8181528460208386010111156117be57600080fd5b816020850160208301376000918101602001919091529392505050565b6000602082840312156117ed57600080fd5b81356001600160401b0381111561180357600080fd5b61180f8482850161176c565b949350505050565b60a0810161185a82848051151582526020810151151560208301526040810151151560408301526060810151151560608301526080810151151560808301525050565b92915050565b60006020828403121561187257600080fd5b81356001600160a01b038116811461188957600080fd5b9392505050565b60005b838110156118ab578181015183820152602001611893565b50506000910152565b600081518084526118cc816020860160208601611890565b601f01601f19169290920160200192915050565b6000815160c084526118f560c08501826118b4565b90506020830151848203602086015261190e82826118b4565b9150506040830151848203604086015261192882826118b4565b9150506060830151848203606086015261194282826118b4565b9150506080830151848203608086015281815180845260208401915060208160051b85010160208401935060005b828110156119a157601f1986830301845261198c8286516118b4565b60209586019594909401939150600101611970565b5060a0870151945087810360a08901526119bb81866118b4565b98975050505050505050565b6000815160a084526119dc60a08501826118b4565b9050602083015184820360208601526119f582826118b4565b91505060408301518482036040860152611a0f82826118b4565b91505060608301518482036060860152611a2982826118b4565b91505060808301518482036080860152611a4382826118b4565b95945050505050565b61010081526000855160c0610100840152611a6b6101c08401826118b4565b9050602087015160ff1984830301610120850152611a8982826118b4565b915050604087015160ff1984830301610140850152611aa882826118b4565b915050606087015160ff1984830301610160850152611ac782826118b4565b915050608087015160ff1984830301610180850152611ae682826118b4565b91505060a087015160ff19848303016101a0850152611b0582826118b4565b9150508281036020840152611b1a81876118e0565b90508281036040840152611b2e81866119c7565b915050611a4360608301848051151582526020810151151560208301526040810151151560408301526060810151151560608301526080810151151560808301525050565b600082601f830112611b8457600080fd5b81356001600160401b03811115611b9d57611b9d6116dc565b8060051b611bad6020820161173c565b91825260208185018101929081019086841115611bc957600080fd5b6020860192505b83831015611c0f5782356001600160401b03811115611bee57600080fd5b611bfd886020838a010161176c565b83525060209283019290910190611bd0565b9695505050505050565b600060c08284031215611c2b57600080fd5b611c336116f2565b905081356001600160401b03811115611c4b57600080fd5b611c578482850161176c565b82525060208201356001600160401b03811115611c7357600080fd5b611c7f8482850161176c565b60208301525060408201356001600160401b03811115611c9e57600080fd5b611caa8482850161176c565b60408301525060608201356001600160401b03811115611cc957600080fd5b611cd58482850161176c565b60608301525060808201356001600160401b03811115611cf457600080fd5b611d0084828501611b73565b60808301525060a08201356001600160401b03811115611d1f57600080fd5b611d2b8482850161176c565b60a08301525092915050565b600060a08284031215611d4957600080fd5b611d5161171a565b905081356001600160401b03811115611d6957600080fd5b611d758482850161176c565b82525060208201356001600160401b03811115611d9157600080fd5b611d9d8482850161176c565b60208301525060408201356001600160401b03811115611dbc57600080fd5b611dc88482850161176c565b60408301525060608201356001600160401b03811115611de757600080fd5b611df38482850161176c565b60608301525060808201356001600160401b03811115611e1257600080fd5b611e1e8482850161176c565b60808301525092915050565b80358015158114611e3a57600080fd5b919050565b600060a08284031215611e5157600080fd5b611e5961171a565b9050611e6482611e2a565b8152611e7260208301611e2a565b6020820152611e8360408301611e2a565b6040820152611e9460608301611e2a565b6060820152611ea560808301611e2a565b608082015292915050565b60008060008060006101208688031215611ec957600080fd5b85356001600160401b03811115611edf57600080fd5b611eeb8882890161176c565b95505060208601356001600160401b03811115611f0757600080fd5b860160c08189031215611f1957600080fd5b611f216116f2565b81356001600160401b03811115611f3757600080fd5b611f438a82850161176c565b82525060208201356001600160401b03811115611f5f57600080fd5b611f6b8a82850161176c565b60208301525060408201356001600160401b03811115611f8a57600080fd5b611f968a82850161176c565b60408301525060608201356001600160401b03811115611fb557600080fd5b611fc18a82850161176c565b60608301525060808201356001600160401b03811115611fe057600080fd5b611fec8a82850161176c565b60808301525060a08201356001600160401b0381111561200b57600080fd5b6120178a82850161176c565b60a08301525094505060408601356001600160401b0381111561203957600080fd5b61204588828901611c19565b93505060608601356001600160401b0381111561206157600080fd5b61206d88828901611d37565b92505061207d8760808801611e3f565b90509295509295909350565b60008060008060008060c087890312156120a257600080fd5b86356001600160401b038111156120b857600080fd5b6120c489828a0161176c565b9650506120d360208801611e2a565b94506120e160408801611e2a565b93506120ef60608801611e2a565b92506120fd60808801611e2a565b915061210b60a08801611e2a565b90509295509295509295565b60208152600061188960208301846118b4565b6000825161213c818460208701611890565b9190910192915050565b602080825260139082015272155cd95c88191bd95cc81b9bdd08195e1a5cdd606a1b604082015260600190565b600181811c9082168061218757607f821691505b6020821081036121a757634e487b7160e01b600052602260045260246000fd5b50919050565b601f8211156121f757806000526020600020601f840160051c810160208510156121d45750805b601f840160051c820191505b818110156121f457600081556001016121e0565b50505b505050565b81516001600160401b03811115612215576122156116dc565b612229816122238454612173565b846121ad565b6020601f82116001811461225d57600083156122455750848201515b600019600385901b1c1916600184901b1784556121f4565b600084815260208120601f198516915b8281101561228d578785015182556020948501946001909201910161226d565b50848210156122ab5786840151600019600387901b60f8161c191681555b50505050600190811b0190555056fea2646970667358221220cb5c336356cb02084afb1b88aabe97bb804b46e8e11dd1e86d5a59f549c100d564736f6c634300081c0033",
          "opcodes": "PUSH1 0x80 PUSH1 0x40 MSTORE CALLVALUE DUP1 ISZERO PUSH1 0xF JUMPI PUSH1 0x0 DUP1 REVERT JUMPDEST POP PUSH2 0x22F0 DUP1 PUSH2 0x1F PUSH1 0x0 CODECOPY PUSH1 0x0 RETURN INVALID PUSH1 0x80 PUSH1 0x40 MSTORE CALLVALUE DUP1 ISZERO PUSH2 0x10 JUMPI PUSH1 0x0 DUP1 REVERT JUMPDEST POP PUSH1 0x4 CALLDATASIZE LT PUSH2 0x7D JUMPI PUSH1 0x0 CALLDATALOAD PUSH1 0xE0 SHR DUP1 PUSH4 0xBB6228B0 GT PUSH2 0x5B JUMPI DUP1 PUSH4 0xBB6228B0 EQ PUSH2 0xE1 JUMPI DUP1 PUSH4 0xD1577CAC EQ PUSH2 0xF6 JUMPI DUP1 PUSH4 0xD17D15EC EQ PUSH2 0x109 JUMPI DUP1 PUSH4 0xF86A29C7 EQ PUSH2 0x129 JUMPI PUSH1 0x0 DUP1 REVERT JUMPDEST DUP1 PUSH4 0x320BA8F7 EQ PUSH2 0x82 JUMPI DUP1 PUSH4 0x69C212F6 EQ PUSH2 0xAB JUMPI DUP1 PUSH4 0x9F42AF63 EQ PUSH2 0xCE JUMPI JUMPDEST PUSH1 0x0 DUP1 REVERT JUMPDEST PUSH2 0x95 PUSH2 0x90 CALLDATASIZE PUSH1 0x4 PUSH2 0x17DB JUMP JUMPDEST PUSH2 0x13C JUMP JUMPDEST PUSH1 0x40 MLOAD PUSH2 0xA2 SWAP2 SWAP1 PUSH2 0x1817 JUMP JUMPDEST PUSH1 0x40 MLOAD DUP1 SWAP2 SUB SWAP1 RETURN JUMPDEST PUSH2 0xBE PUSH2 0xB9 CALLDATASIZE PUSH1 0x4 PUSH2 0x1860 JUMP JUMPDEST PUSH2 0x22F JUMP JUMPDEST PUSH1 0x40 MLOAD PUSH2 0xA2 SWAP5 SWAP4 SWAP3 SWAP2 SWAP1 PUSH2 0x1A4C JUMP JUMPDEST PUSH2 0xBE PUSH2 0xDC CALLDATASIZE PUSH1 0x4 PUSH2 0x17DB JUMP JUMPDEST PUSH2 0x3BA JUMP JUMPDEST PUSH2 0xF4 PUSH2 0xEF CALLDATASIZE PUSH1 0x4 PUSH2 0x1EB0 JUMP JUMPDEST PUSH2 0xF68 JUMP JUMPDEST STOP JUMPDEST PUSH2 0xF4 PUSH2 0x104 CALLDATASIZE PUSH1 0x4 PUSH2 0x2089 JUMP JUMPDEST PUSH2 0x1251 JUMP JUMPDEST PUSH2 0x11C PUSH2 0x117 CALLDATASIZE PUSH1 0x4 PUSH2 0x1860 JUMP JUMPDEST PUSH2 0x1320 JUMP JUMPDEST PUSH1 0x40 MLOAD PUSH2 0xA2 SWAP2 SWAP1 PUSH2 0x2117 JUMP JUMPDEST PUSH2 0xF4 PUSH2 0x137 CALLDATASIZE PUSH1 0x4 PUSH2 0x1EB0 JUMP JUMPDEST PUSH2 0x13CC JUMP JUMPDEST PUSH1 0x40 DUP1 MLOAD PUSH1 0xA0 DUP2 ADD DUP3 MSTORE PUSH1 0x0 DUP1 DUP3 MSTORE PUSH1 0x20 DUP3 ADD DUP2 SWAP1 MSTORE SWAP2 DUP2 ADD DUP3 SWAP1 MSTORE PUSH1 0x60 DUP2 ADD DUP3 SWAP1 MSTORE PUSH1 0x80 DUP2 ADD SWAP2 SWAP1 SWAP2 MSTORE PUSH1 0x0 DUP3 PUSH1 0x40 MLOAD PUSH2 0x177 SWAP2 SWAP1 PUSH2 0x212A JUMP JUMPDEST SWAP1 DUP2 MSTORE PUSH1 0x40 MLOAD SWAP1 DUP2 SWAP1 SUB PUSH1 0x20 ADD SWAP1 KECCAK256 PUSH1 0x12 ADD SLOAD PUSH1 0xFF AND PUSH2 0x1B2 JUMPI PUSH1 0x40 MLOAD PUSH3 0x461BCD PUSH1 0xE5 SHL DUP2 MSTORE PUSH1 0x4 ADD PUSH2 0x1A9 SWAP1 PUSH2 0x2146 JUMP JUMPDEST PUSH1 0x40 MLOAD DUP1 SWAP2 SUB SWAP1 REVERT JUMPDEST PUSH1 0x0 DUP3 PUSH1 0x40 MLOAD PUSH2 0x1C2 SWAP2 SWAP1 PUSH2 0x212A JUMP JUMPDEST SWAP1 DUP2 MSTORE PUSH1 0x40 DUP1 MLOAD SWAP2 DUP3 SWAP1 SUB PUSH1 0x20 SWAP1 DUP2 ADD DUP4 KECCAK256 PUSH1 0xA0 DUP5 ADD DUP4 MSTORE PUSH1 0x14 ADD SLOAD PUSH1 0xFF DUP1 DUP3 AND ISZERO ISZERO DUP6 MSTORE PUSH2 0x100 DUP3 DIV DUP2 AND ISZERO ISZERO SWAP3 DUP6 ADD SWAP3 SWAP1 SWAP3 MSTORE PUSH3 0x10000 DUP2 DIV DUP3 AND ISZERO ISZERO SWAP3 DUP5 ADD SWAP3 SWAP1 SWAP3 MSTORE PUSH4 0x1000000 DUP3 DIV DUP2 AND ISZERO ISZERO PUSH1 0x60 DUP5 ADD MSTORE PUSH5 0x100000000 SWAP1 SWAP2 DIV AND ISZERO ISZERO PUSH1 0x80 DUP3 ADD MSTORE SWAP3 SWAP2 POP POP JUMP JUMPDEST PUSH2 0x268 PUSH1 0x40 MLOAD DUP1 PUSH1 0xC0 ADD PUSH1 0x40 MSTORE DUP1 PUSH1 0x60 DUP2 MSTORE PUSH1 0x20 ADD PUSH1 0x60 DUP2 MSTORE PUSH1 0x20 ADD PUSH1 0x60 DUP2 MSTORE PUSH1 0x20 ADD PUSH1 0x60 DUP2 MSTORE PUSH1 0x20 ADD PUSH1 0x60 DUP2 MSTORE PUSH1 0x20 ADD PUSH1 0x60 DUP2 MSTORE POP SWAP1 JUMP JUMPDEST PUSH2 0x2A1 PUSH1 0x40 MLOAD DUP1 PUSH1 0xC0 ADD PUSH1 0x40 MSTORE DUP1 PUSH1 0x60 DUP2 MSTORE PUSH1 0x20 ADD PUSH1 0x60 DUP2 MSTORE PUSH1 0x20 ADD PUSH1 0x60 DUP2 MSTORE PUSH1 0x20 ADD PUSH1 0x60 DUP2 MSTORE PUSH1 0x20 ADD PUSH1 0x60 DUP2 MSTORE PUSH1 0x20 ADD PUSH1 0x60 DUP2 MSTORE POP SWAP1 JUMP JUMPDEST PUSH2 0x2D3 PUSH1 0x40 MLOAD DUP1 PUSH1 0xA0 ADD PUSH1 0x40 MSTORE DUP1 PUSH1 0x60 DUP2 MSTORE PUSH1 0x20 ADD PUSH1 0x60 DUP2 MSTORE PUSH1 0x20 ADD PUSH1 0x60 DUP2 MSTORE PUSH1 0x20 ADD PUSH1 0x60 DUP2 MSTORE PUSH1 0x20 ADD PUSH1 0x60 DUP2 MSTORE POP SWAP1 JUMP JUMPDEST PUSH1 0x40 DUP1 MLOAD PUSH1 0xA0 DUP2 ADD DUP3 MSTORE PUSH1 0x0 DUP1 DUP3 MSTORE PUSH1 0x20 DUP3 ADD DUP2 SWAP1 MSTORE SWAP2 DUP2 ADD DUP3 SWAP1 MSTORE PUSH1 0x60 DUP2 ADD DUP3 SWAP1 MSTORE PUSH1 0x80 DUP2 ADD SWAP2 SWAP1 SWAP2 MSTORE PUSH1 0x1 PUSH1 0x1 PUSH1 0xA0 SHL SUB DUP6 AND PUSH1 0x0 SWAP1 DUP2 MSTORE PUSH1 0x1 PUSH1 0x20 MSTORE PUSH1 0x40 DUP2 KECCAK256 DUP1 SLOAD PUSH2 0x321 SWAP1 PUSH2 0x2173 JUMP JUMPDEST DUP1 PUSH1 0x1F ADD PUSH1 0x20 DUP1 SWAP2 DIV MUL PUSH1 0x20 ADD PUSH1 0x40 MLOAD SWAP1 DUP2 ADD PUSH1 0x40 MSTORE DUP1 SWAP3 SWAP2 SWAP1 DUP2 DUP2 MSTORE PUSH1 0x20 ADD DUP3 DUP1 SLOAD PUSH2 0x34D SWAP1 PUSH2 0x2173 JUMP JUMPDEST DUP1 ISZERO PUSH2 0x39A JUMPI DUP1 PUSH1 0x1F LT PUSH2 0x36F JUMPI PUSH2 0x100 DUP1 DUP4 SLOAD DIV MUL DUP4 MSTORE SWAP2 PUSH1 0x20 ADD SWAP2 PUSH2 0x39A JUMP JUMPDEST DUP3 ADD SWAP2 SWAP1 PUSH1 0x0 MSTORE PUSH1 0x20 PUSH1 0x0 KECCAK256 SWAP1 JUMPDEST DUP2 SLOAD DUP2 MSTORE SWAP1 PUSH1 0x1 ADD SWAP1 PUSH1 0x20 ADD DUP1 DUP4 GT PUSH2 0x37D JUMPI DUP3 SWAP1 SUB PUSH1 0x1F AND DUP3 ADD SWAP2 JUMPDEST POP POP POP POP POP SWAP1 POP PUSH2 0x3AA DUP2 PUSH2 0x3BA JUMP JUMPDEST SWAP5 POP SWAP5 POP SWAP5 POP SWAP5 POP POP SWAP2 SWAP4 POP SWAP2 SWAP4 JUMP JUMPDEST PUSH2 0x3F3 PUSH1 0x40 MLOAD DUP1 PUSH1 0xC0 ADD PUSH1 0x40 MSTORE DUP1 PUSH1 0x60 DUP2 MSTORE PUSH1 0x20 ADD PUSH1 0x60 DUP2 MSTORE PUSH1 0x20 ADD PUSH1 0x60 DUP2 MSTORE PUSH1 0x20 ADD PUSH1 0x60 DUP2 MSTORE PUSH1 0x20 ADD PUSH1 0x60 DUP2 MSTORE PUSH1 0x20 ADD PUSH1 0x60 DUP2 MSTORE POP SWAP1 JUMP JUMPDEST PUSH2 0x42C PUSH1 0x40 MLOAD DUP1 PUSH1 0xC0 ADD PUSH1 0x40 MSTORE DUP1 PUSH1 0x60 DUP2 MSTORE PUSH1 0x20 ADD PUSH1 0x60 DUP2 MSTORE PUSH1 0x20 ADD PUSH1 0x60 DUP2 MSTORE PUSH1 0x20 ADD PUSH1 0x60 DUP2 MSTORE PUSH1 0x20 ADD PUSH1 0x60 DUP2 MSTORE PUSH1 0x20 ADD PUSH1 0x60 DUP2 MSTORE POP SWAP1 JUMP JUMPDEST PUSH2 0x45E PUSH1 0x40 MLOAD DUP1 PUSH1 0xA0 ADD PUSH1 0x40 MSTORE DUP1 PUSH1 0x60 DUP2 MSTORE PUSH1 0x20 ADD PUSH1 0x60 DUP2 MSTORE PUSH1 0x20 ADD PUSH1 0x60 DUP2 MSTORE PUSH1 0x20 ADD PUSH1 0x60 DUP2 MSTORE PUSH1 0x20 ADD PUSH1 0x60 DUP2 MSTORE POP SWAP1 JUMP JUMPDEST PUSH1 0x40 DUP1 MLOAD PUSH1 0xA0 DUP2 ADD DUP3 MSTORE PUSH1 0x0 DUP1 DUP3 MSTORE PUSH1 0x20 DUP3 ADD DUP2 SWAP1 MSTORE SWAP2 DUP2 ADD DUP3 SWAP1 MSTORE PUSH1 0x60 DUP2 ADD DUP3 SWAP1 MSTORE PUSH1 0x80 DUP2 ADD SWAP2 SWAP1 SWAP2 MSTORE PUSH1 0x0 DUP6 PUSH1 0x40 MLOAD PUSH2 0x499 SWAP2 SWAP1 PUSH2 0x212A JUMP JUMPDEST SWAP1 DUP2 MSTORE PUSH1 0x40 MLOAD SWAP1 DUP2 SWAP1 SUB PUSH1 0x20 ADD SWAP1 KECCAK256 PUSH1 0x12 ADD SLOAD PUSH1 0xFF AND PUSH2 0x4CB JUMPI PUSH1 0x40 MLOAD PUSH3 0x461BCD PUSH1 0xE5 SHL DUP2 MSTORE PUSH1 0x4 ADD PUSH2 0x1A9 SWAP1 PUSH2 0x2146 JUMP JUMPDEST PUSH1 0x0 DUP1 DUP7 PUSH1 0x40 MLOAD PUSH2 0x4DC SWAP2 SWAP1 PUSH2 0x212A JUMP JUMPDEST SWAP1 DUP2 MSTORE PUSH1 0x20 ADD PUSH1 0x40 MLOAD DUP1 SWAP2 SUB SWAP1 KECCAK256 SWAP1 POP PUSH1 0x40 MLOAD DUP1 PUSH1 0xC0 ADD PUSH1 0x40 MSTORE DUP1 DUP3 PUSH1 0x0 ADD DUP1 SLOAD PUSH2 0x506 SWAP1 PUSH2 0x2173 JUMP JUMPDEST DUP1 PUSH1 0x1F ADD PUSH1 0x20 DUP1 SWAP2 DIV MUL PUSH1 0x20 ADD PUSH1 0x40 MLOAD SWAP1 DUP2 ADD PUSH1 0x40 MSTORE DUP1 SWAP3 SWAP2 SWAP1 DUP2 DUP2 MSTORE PUSH1 0x20 ADD DUP3 DUP1 SLOAD PUSH2 0x532 SWAP1 PUSH2 0x2173 JUMP JUMPDEST DUP1 ISZERO PUSH2 0x57F JUMPI DUP1 PUSH1 0x1F LT PUSH2 0x554 JUMPI PUSH2 0x100 DUP1 DUP4 SLOAD DIV MUL DUP4 MSTORE SWAP2 PUSH1 0x20 ADD SWAP2 PUSH2 0x57F JUMP JUMPDEST DUP3 ADD SWAP2 SWAP1 PUSH1 0x0 MSTORE PUSH1 0x20 PUSH1 0x0 KECCAK256 SWAP1 JUMPDEST DUP2 SLOAD DUP2 MSTORE SWAP1 PUSH1 0x1 ADD SWAP1 PUSH1 0x20 ADD DUP1 DUP4 GT PUSH2 0x562 JUMPI DUP3 SWAP1 SUB PUSH1 0x1F AND DUP3 ADD SWAP2 JUMPDEST POP POP POP POP POP DUP2 MSTORE PUSH1 0x20 ADD DUP3 PUSH1 0x1 ADD DUP1 SLOAD PUSH2 0x598 SWAP1 PUSH2 0x2173 JUMP JUMPDEST DUP1 PUSH1 0x1F ADD PUSH1 0x20 DUP1 SWAP2 DIV MUL PUSH1 0x20 ADD PUSH1 0x40 MLOAD SWAP1 DUP2 ADD PUSH1 0x40 MSTORE DUP1 SWAP3 SWAP2 SWAP1 DUP2 DUP2 MSTORE PUSH1 0x20 ADD DUP3 DUP1 SLOAD PUSH2 0x5C4 SWAP1 PUSH2 0x2173 JUMP JUMPDEST DUP1 ISZERO PUSH2 0x611 JUMPI DUP1 PUSH1 0x1F LT PUSH2 0x5E6 JUMPI PUSH2 0x100 DUP1 DUP4 SLOAD DIV MUL DUP4 MSTORE SWAP2 PUSH1 0x20 ADD SWAP2 PUSH2 0x611 JUMP JUMPDEST DUP3 ADD SWAP2 SWAP1 PUSH1 0x0 MSTORE PUSH1 0x20 PUSH1 0x0 KECCAK256 SWAP1 JUMPDEST DUP2 SLOAD DUP2 MSTORE SWAP1 PUSH1 0x1 ADD SWAP1 PUSH1 0x20 ADD DUP1 DUP4 GT PUSH2 0x5F4 JUMPI DUP3 SWAP1 SUB PUSH1 0x1F AND DUP3 ADD SWAP2 JUMPDEST POP POP POP POP POP DUP2 MSTORE PUSH1 0x20 ADD DUP3 PUSH1 0x3 ADD DUP1 SLOAD PUSH2 0x62A SWAP1 PUSH2 0x2173 JUMP JUMPDEST DUP1 PUSH1 0x1F ADD PUSH1 0x20 DUP1 SWAP2 DIV MUL PUSH1 0x20 ADD PUSH1 0x40 MLOAD SWAP1 DUP2 ADD PUSH1 0x40 MSTORE DUP1 SWAP3 SWAP2 SWAP1 DUP2 DUP2 MSTORE PUSH1 0x20 ADD DUP3 DUP1 SLOAD PUSH2 0x656 SWAP1 PUSH2 0x2173 JUMP JUMPDEST DUP1 ISZERO PUSH2 0x6A3 JUMPI DUP1 PUSH1 0x1F LT PUSH2 0x678 JUMPI PUSH2 0x100 DUP1 DUP4 SLOAD DIV MUL DUP4 MSTORE SWAP2 PUSH1 0x20 ADD SWAP2 PUSH2 0x6A3 JUMP JUMPDEST DUP3 ADD SWAP2 SWAP1 PUSH1 0x0 MSTORE PUSH1 0x20 PUSH1 0x0 KECCAK256 SWAP1 JUMPDEST DUP2 SLOAD DUP2 MSTORE SWAP1 PUSH1 0x1 ADD SWAP1 PUSH1 0x20 ADD DUP1 DUP4 GT PUSH2 0x686 JUMPI DUP3 SWAP1 SUB PUSH1 0x1F AND DUP3 ADD SWAP2 JUMPDEST POP POP POP POP POP DUP2 MSTORE PUSH1 0x20 ADD DUP3 PUSH1 0x4 ADD DUP1 SLOAD PUSH2 0x6BC SWAP1 PUSH2 0x2173 JUMP JUMPDEST DUP1 PUSH1 0x1F ADD PUSH1 0x20 DUP1 SWAP2 DIV MUL PUSH1 0x20 ADD PUSH1 0x40 MLOAD SWAP1 DUP2 ADD PUSH1 0x40 MSTORE DUP1 SWAP3 SWAP2 SWAP1 DUP2 DUP2 MSTORE PUSH1 0x20 ADD DUP3 DUP1 SLOAD PUSH2 0x6E8 SWAP1 PUSH2 0x2173 JUMP JUMPDEST DUP1 ISZERO PUSH2 0x735 JUMPI DUP1 PUSH1 0x1F LT PUSH2 0x70A JUMPI PUSH2 0x100 DUP1 DUP4 SLOAD DIV MUL DUP4 MSTORE SWAP2 PUSH1 0x20 ADD SWAP2 PUSH2 0x735 JUMP JUMPDEST DUP3 ADD SWAP2 SWAP1 PUSH1 0x0 MSTORE PUSH1 0x20 PUSH1 0x0 KECCAK256 SWAP1 JUMPDEST DUP2 SLOAD DUP2 MSTORE SWAP1 PUSH1 0x1 ADD SWAP1 PUSH1 0x20 ADD DUP1 DUP4 GT PUSH2 0x718 JUMPI DUP3 SWAP1 SUB PUSH1 0x1F AND DUP3 ADD SWAP2 JUMPDEST POP POP POP POP POP DUP2 MSTORE PUSH1 0x20 ADD DUP3 PUSH1 0x5 ADD DUP1 SLOAD PUSH2 0x74E SWAP1 PUSH2 0x2173 JUMP JUMPDEST DUP1 PUSH1 0x1F ADD PUSH1 0x20 DUP1 SWAP2 DIV MUL PUSH1 0x20 ADD PUSH1 0x40 MLOAD SWAP1 DUP2 ADD PUSH1 0x40 MSTORE DUP1 SWAP3 SWAP2 SWAP1 DUP2 DUP2 MSTORE PUSH1 0x20 ADD DUP3 DUP1 SLOAD PUSH2 0x77A SWAP1 PUSH2 0x2173 JUMP JUMPDEST DUP1 ISZERO PUSH2 0x7C7 JUMPI DUP1 PUSH1 0x1F LT PUSH2 0x79C JUMPI PUSH2 0x100 DUP1 DUP4 SLOAD DIV MUL DUP4 MSTORE SWAP2 PUSH1 0x20 ADD SWAP2 PUSH2 0x7C7 JUMP JUMPDEST DUP3 ADD SWAP2 SWAP1 PUSH1 0x0 MSTORE PUSH1 0x20 PUSH1 0x0 KECCAK256 SWAP1 JUMPDEST DUP2 SLOAD DUP2 MSTORE SWAP1 PUSH1 0x1 ADD SWAP1 PUSH1 0x20 ADD DUP1 DUP4 GT PUSH2 0x7AA JUMPI DUP3 SWAP1 SUB PUSH1 0x1F AND DUP3 ADD SWAP2 JUMPDEST POP POP POP POP POP DUP2 MSTORE PUSH1 0x20 ADD DUP3 PUSH1 0x6 ADD DUP1 SLOAD PUSH2 0x7E0 SWAP1 PUSH2 0x2173 JUMP JUMPDEST DUP1 PUSH1 0x1F ADD PUSH1 0x20 DUP1 SWAP2 DIV MUL PUSH1 0x20 ADD PUSH1 0x40 MLOAD SWAP1 DUP2 ADD PUSH1 0x40 MSTORE DUP1 SWAP3 SWAP2 SWAP1 DUP2 DUP2 MSTORE PUSH1 0x20 ADD DUP3 DUP1 SLOAD PUSH2 0x80C SWAP1 PUSH2 0x2173 JUMP JUMPDEST DUP1 ISZERO PUSH2 0x859 JUMPI DUP1 PUSH1 0x1F LT PUSH2 0x82E JUMPI PUSH2 0x100 DUP1 DUP4 SLOAD DIV MUL DUP4 MSTORE SWAP2 PUSH1 0x20 ADD SWAP2 PUSH2 0x859 JUMP JUMPDEST DUP3 ADD SWAP2 SWAP1 PUSH1 0x0 MSTORE PUSH1 0x20 PUSH1 0x0 KECCAK256 SWAP1 JUMPDEST DUP2 SLOAD DUP2 MSTORE SWAP1 PUSH1 0x1 ADD SWAP1 PUSH1 0x20 ADD DUP1 DUP4 GT PUSH2 0x83C JUMPI DUP3 SWAP1 SUB PUSH1 0x1F AND DUP3 ADD SWAP2 JUMPDEST POP POP POP POP POP DUP2 MSTORE POP SWAP5 POP PUSH1 0x40 MLOAD DUP1 PUSH1 0xC0 ADD PUSH1 0x40 MSTORE DUP1 DUP3 PUSH1 0xD ADD DUP1 SLOAD PUSH2 0x87D SWAP1 PUSH2 0x2173 JUMP JUMPDEST DUP1 PUSH1 0x1F ADD PUSH1 0x20 DUP1 SWAP2 DIV MUL PUSH1 0x20 ADD PUSH1 0x40 MLOAD SWAP1 DUP2 ADD PUSH1 0x40 MSTORE DUP1 SWAP3 SWAP2 SWAP1 DUP2 DUP2 MSTORE PUSH1 0x20 ADD DUP3 DUP1 SLOAD PUSH2 0x8A9 SWAP1 PUSH2 0x2173 JUMP JUMPDEST DUP1 ISZERO PUSH2 0x8F6 JUMPI DUP1 PUSH1 0x1F LT PUSH2 0x8CB JUMPI PUSH2 0x100 DUP1 DUP4 SLOAD DIV MUL DUP4 MSTORE SWAP2 PUSH1 0x20 ADD SWAP2 PUSH2 0x8F6 JUMP JUMPDEST DUP3 ADD SWAP2 SWAP1 PUSH1 0x0 MSTORE PUSH1 0x20 PUSH1 0x0 KECCAK256 SWAP1 JUMPDEST DUP2 SLOAD DUP2 MSTORE SWAP1 PUSH1 0x1 ADD SWAP1 PUSH1 0x20 ADD DUP1 DUP4 GT PUSH2 0x8D9 JUMPI DUP3 SWAP1 SUB PUSH1 0x1F AND DUP3 ADD SWAP2 JUMPDEST POP POP POP POP POP DUP2 MSTORE PUSH1 0x20 ADD DUP3 PUSH1 0xF ADD DUP1 SLOAD PUSH2 0x90F SWAP1 PUSH2 0x2173 JUMP JUMPDEST DUP1 PUSH1 0x1F ADD PUSH1 0x20 DUP1 SWAP2 DIV MUL PUSH1 0x20 ADD PUSH1 0x40 MLOAD SWAP1 DUP2 ADD PUSH1 0x40 MSTORE DUP1 SWAP3 SWAP2 SWAP1 DUP2 DUP2 MSTORE PUSH1 0x20 ADD DUP3 DUP1 SLOAD PUSH2 0x93B SWAP1 PUSH2 0x2173 JUMP JUMPDEST DUP1 ISZERO PUSH2 0x988 JUMPI DUP1 PUSH1 0x1F LT PUSH2 0x95D JUMPI PUSH2 0x100 DUP1 DUP4 SLOAD DIV MUL DUP4 MSTORE SWAP2 PUSH1 0x20 ADD SWAP2 PUSH2 0x988 JUMP JUMPDEST DUP3 ADD SWAP2 SWAP1 PUSH1 0x0 MSTORE PUSH1 0x20 PUSH1 0x0 KECCAK256 SWAP1 JUMPDEST DUP2 SLOAD DUP2 MSTORE SWAP1 PUSH1 0x1 ADD SWAP1 PUSH1 0x20 ADD DUP1 DUP4 GT PUSH2 0x96B JUMPI DUP3 SWAP1 SUB PUSH1 0x1F AND DUP3 ADD SWAP2 JUMPDEST POP POP POP POP POP DUP2 MSTORE PUSH1 0x20 ADD DUP3 PUSH1 0xE ADD DUP1 SLOAD PUSH2 0x9A1 SWAP1 PUSH2 0x2173 JUMP JUMPDEST DUP1 PUSH1 0x1F ADD PUSH1 0x20 DUP1 SWAP2 DIV MUL PUSH1 0x20 ADD PUSH1 0x40 MLOAD SWAP1 DUP2 ADD PUSH1 0x40 MSTORE DUP1 SWAP3 SWAP2 SWAP1 DUP2 DUP2 MSTORE PUSH1 0x20 ADD DUP3 DUP1 SLOAD PUSH2 0x9CD SWAP1 PUSH2 0x2173 JUMP JUMPDEST DUP1 ISZERO PUSH2 0xA1A JUMPI DUP1 PUSH1 0x1F LT PUSH2 0x9EF JUMPI PUSH2 0x100 DUP1 DUP4 SLOAD DIV MUL DUP4 MSTORE SWAP2 PUSH1 0x20 ADD SWAP2 PUSH2 0xA1A JUMP JUMPDEST DUP3 ADD SWAP2 SWAP1 PUSH1 0x0 MSTORE PUSH1 0x20 PUSH1 0x0 KECCAK256 SWAP1 JUMPDEST DUP2 SLOAD DUP2 MSTORE SWAP1 PUSH1 0x1 ADD SWAP1 PUSH1 0x20 ADD DUP1 DUP4 GT PUSH2 0x9FD JUMPI DUP3 SWAP1 SUB PUSH1 0x1F AND DUP3 ADD SWAP2 JUMPDEST POP POP POP POP POP DUP2 MSTORE PUSH1 0x20 ADD DUP3 PUSH1 0x7 ADD DUP1 SLOAD PUSH2 0xA33 SWAP1 PUSH2 0x2173 JUMP JUMPDEST DUP1 PUSH1 0x1F ADD PUSH1 0x20 DUP1 SWAP2 DIV MUL PUSH1 0x20 ADD PUSH1 0x40 MLOAD SWAP1 DUP2 ADD PUSH1 0x40 MSTORE DUP1 SWAP3 SWAP2 SWAP1 DUP2 DUP2 MSTORE PUSH1 0x20 ADD DUP3 DUP1 SLOAD PUSH2 0xA5F SWAP1 PUSH2 0x2173 JUMP JUMPDEST DUP1 ISZERO PUSH2 0xAAC JUMPI DUP1 PUSH1 0x1F LT PUSH2 0xA81 JUMPI PUSH2 0x100 DUP1 DUP4 SLOAD DIV MUL DUP4 MSTORE SWAP2 PUSH1 0x20 ADD SWAP2 PUSH2 0xAAC JUMP JUMPDEST DUP3 ADD SWAP2 SWAP1 PUSH1 0x0 MSTORE PUSH1 0x20 PUSH1 0x0 KECCAK256 SWAP1 JUMPDEST DUP2 SLOAD DUP2 MSTORE SWAP1 PUSH1 0x1 ADD SWAP1 PUSH1 0x20 ADD DUP1 DUP4 GT PUSH2 0xA8F JUMPI DUP3 SWAP1 SUB PUSH1 0x1F AND DUP3 ADD SWAP2 JUMPDEST POP POP POP POP POP DUP2 MSTORE PUSH1 0x20 ADD DUP3 PUSH1 0x10 ADD DUP1 SLOAD DUP1 PUSH1 0x20 MUL PUSH1 0x20 ADD PUSH1 0x40 MLOAD SWAP1 DUP2 ADD PUSH1 0x40 MSTORE DUP1 SWAP3 SWAP2 SWAP1 DUP2 DUP2 MSTORE PUSH1 0x20 ADD PUSH1 0x0 SWAP1 JUMPDEST DUP3 DUP3 LT ISZERO PUSH2 0xB86 JUMPI DUP4 DUP3 SWAP1 PUSH1 0x0 MSTORE PUSH1 0x20 PUSH1 0x0 KECCAK256 ADD DUP1 SLOAD PUSH2 0xAF9 SWAP1 PUSH2 0x2173 JUMP JUMPDEST DUP1 PUSH1 0x1F ADD PUSH1 0x20 DUP1 SWAP2 DIV MUL PUSH1 0x20 ADD PUSH1 0x40 MLOAD SWAP1 DUP2 ADD PUSH1 0x40 MSTORE DUP1 SWAP3 SWAP2 SWAP1 DUP2 DUP2 MSTORE PUSH1 0x20 ADD DUP3 DUP1 SLOAD PUSH2 0xB25 SWAP1 PUSH2 0x2173 JUMP JUMPDEST DUP1 ISZERO PUSH2 0xB72 JUMPI DUP1 PUSH1 0x1F LT PUSH2 0xB47 JUMPI PUSH2 0x100 DUP1 DUP4 SLOAD DIV MUL DUP4 MSTORE SWAP2 PUSH1 0x20 ADD SWAP2 PUSH2 0xB72 JUMP JUMPDEST DUP3 ADD SWAP2 SWAP1 PUSH1 0x0 MSTORE PUSH1 0x20 PUSH1 0x0 KECCAK256 SWAP1 JUMPDEST DUP2 SLOAD DUP2 MSTORE SWAP1 PUSH1 0x1 ADD SWAP1 PUSH1 0x20 ADD DUP1 DUP4 GT PUSH2 0xB55 JUMPI DUP3 SWAP1 SUB PUSH1 0x1F AND DUP3 ADD SWAP2 JUMPDEST POP POP POP POP POP DUP2 MSTORE PUSH1 0x20 ADD SWAP1 PUSH1 0x1 ADD SWAP1 PUSH2 0xADA JUMP JUMPDEST POP POP POP POP DUP2 MSTORE PUSH1 0x20 ADD DUP3 PUSH1 0x11 ADD DUP1 SLOAD PUSH2 0xB9E SWAP1 PUSH2 0x2173 JUMP JUMPDEST DUP1 PUSH1 0x1F ADD PUSH1 0x20 DUP1 SWAP2 DIV MUL PUSH1 0x20 ADD PUSH1 0x40 MLOAD SWAP1 DUP2 ADD PUSH1 0x40 MSTORE DUP1 SWAP3 SWAP2 SWAP1 DUP2 DUP2 MSTORE PUSH1 0x20 ADD DUP3 DUP1 SLOAD PUSH2 0xBCA SWAP1 PUSH2 0x2173 JUMP JUMPDEST DUP1 ISZERO PUSH2 0xC17 JUMPI DUP1 PUSH1 0x1F LT PUSH2 0xBEC JUMPI PUSH2 0x100 DUP1 DUP4 SLOAD DIV MUL DUP4 MSTORE SWAP2 PUSH1 0x20 ADD SWAP2 PUSH2 0xC17 JUMP JUMPDEST DUP3 ADD SWAP2 SWAP1 PUSH1 0x0 MSTORE PUSH1 0x20 PUSH1 0x0 KECCAK256 SWAP1 JUMPDEST DUP2 SLOAD DUP2 MSTORE SWAP1 PUSH1 0x1 ADD SWAP1 PUSH1 0x20 ADD DUP1 DUP4 GT PUSH2 0xBFA JUMPI DUP3 SWAP1 SUB PUSH1 0x1F AND DUP3 ADD SWAP2 JUMPDEST POP POP POP POP POP DUP2 MSTORE POP SWAP4 POP PUSH1 0x40 MLOAD DUP1 PUSH1 0xA0 ADD PUSH1 0x40 MSTORE DUP1 DUP3 PUSH1 0x8 ADD DUP1 SLOAD PUSH2 0xC3B SWAP1 PUSH2 0x2173 JUMP JUMPDEST DUP1 PUSH1 0x1F ADD PUSH1 0x20 DUP1 SWAP2 DIV MUL PUSH1 0x20 ADD PUSH1 0x40 MLOAD SWAP1 DUP2 ADD PUSH1 0x40 MSTORE DUP1 SWAP3 SWAP2 SWAP1 DUP2 DUP2 MSTORE PUSH1 0x20 ADD DUP3 DUP1 SLOAD PUSH2 0xC67 SWAP1 PUSH2 0x2173 JUMP JUMPDEST DUP1 ISZERO PUSH2 0xCB4 JUMPI DUP1 PUSH1 0x1F LT PUSH2 0xC89 JUMPI PUSH2 0x100 DUP1 DUP4 SLOAD DIV MUL DUP4 MSTORE SWAP2 PUSH1 0x20 ADD SWAP2 PUSH2 0xCB4 JUMP JUMPDEST DUP3 ADD SWAP2 SWAP1 PUSH1 0x0 MSTORE PUSH1 0x20 PUSH1 0x0 KECCAK256 SWAP1 JUMPDEST DUP2 SLOAD DUP2 MSTORE SWAP1 PUSH1 0x1 ADD SWAP1 PUSH1 0x20 ADD DUP1 DUP4 GT PUSH2 0xC97 JUMPI DUP3 SWAP1 SUB PUSH1 0x1F AND DUP3 ADD SWAP2 JUMPDEST POP POP POP POP POP DUP2 MSTORE PUSH1 0x20 ADD DUP3 PUSH1 0x9 ADD DUP1 SLOAD PUSH2 0xCCD SWAP1 PUSH2 0x2173 JUMP JUMPDEST DUP1 PUSH1 0x1F ADD PUSH1 0x20 DUP1 SWAP2 DIV MUL PUSH1 0x20 ADD PUSH1 0x40 MLOAD SWAP1 DUP2 ADD PUSH1 0x40 MSTORE DUP1 SWAP3 SWAP2 SWAP1 DUP2 DUP2 MSTORE PUSH1 0x20 ADD DUP3 DUP1 SLOAD PUSH2 0xCF9 SWAP1 PUSH2 0x2173 JUMP JUMPDEST DUP1 ISZERO PUSH2 0xD46 JUMPI DUP1 PUSH1 0x1F LT PUSH2 0xD1B JUMPI PUSH2 0x100 DUP1 DUP4 SLOAD DIV MUL DUP4 MSTORE SWAP2 PUSH1 0x20 ADD SWAP2 PUSH2 0xD46 JUMP JUMPDEST DUP3 ADD SWAP2 SWAP1 PUSH1 0x0 MSTORE PUSH1 0x20 PUSH1 0x0 KECCAK256 SWAP1 JUMPDEST DUP2 SLOAD DUP2 MSTORE SWAP1 PUSH1 0x1 ADD SWAP1 PUSH1 0x20 ADD DUP1 DUP4 GT PUSH2 0xD29 JUMPI DUP3 SWAP1 SUB PUSH1 0x1F AND DUP3 ADD SWAP2 JUMPDEST POP POP POP POP POP DUP2 MSTORE PUSH1 0x20 ADD DUP3 PUSH1 0xA ADD DUP1 SLOAD PUSH2 0xD5F SWAP1 PUSH2 0x2173 JUMP JUMPDEST DUP1 PUSH1 0x1F ADD PUSH1 0x20 DUP1 SWAP2 DIV MUL PUSH1 0x20 ADD PUSH1 0x40 MLOAD SWAP1 DUP2 ADD PUSH1 0x40 MSTORE DUP1 SWAP3 SWAP2 SWAP1 DUP2 DUP2 MSTORE PUSH1 0x20 ADD DUP3 DUP1 SLOAD PUSH2 0xD8B SWAP1 PUSH2 0x2173 JUMP JUMPDEST DUP1 ISZERO PUSH2 0xDD8 JUMPI DUP1 PUSH1 0x1F LT PUSH2 0xDAD JUMPI PUSH2 0x100 DUP1 DUP4 SLOAD DIV MUL DUP4 MSTORE SWAP2 PUSH1 0x20 ADD SWAP2 PUSH2 0xDD8 JUMP JUMPDEST DUP3 ADD SWAP2 SWAP1 PUSH1 0x0 MSTORE PUSH1 0x20 PUSH1 0x0 KECCAK256 SWAP1 JUMPDEST DUP2 SLOAD DUP2 MSTORE SWAP1 PUSH1 0x1 ADD SWAP1 PUSH1 0x20 ADD DUP1 DUP4 GT PUSH2 0xDBB JUMPI DUP3 SWAP1 SUB PUSH1 0x1F AND DUP3 ADD SWAP2 JUMPDEST POP POP POP POP POP DUP2 MSTORE PUSH1 0x20 ADD DUP3 PUSH1 0xB ADD DUP1 SLOAD PUSH2 0xDF1 SWAP1 PUSH2 0x2173 JUMP JUMPDEST DUP1 PUSH1 0x1F ADD PUSH1 0x20 DUP1 SWAP2 DIV MUL PUSH1 0x20 ADD PUSH1 0x40 MLOAD SWAP1 DUP2 ADD PUSH1 0x40 MSTORE DUP1 SWAP3 SWAP2 SWAP1 DUP2 DUP2 MSTORE PUSH1 0x20 ADD DUP3 DUP1 SLOAD PUSH2 0xE1D SWAP1 PUSH2 0x2173 JUMP JUMPDEST DUP1 ISZERO PUSH2 0xE6A JUMPI DUP1 PUSH1 0x1F LT PUSH2 0xE3F JUMPI PUSH2 0x100 DUP1 DUP4 SLOAD DIV MUL DUP4 MSTORE SWAP2 PUSH1 0x20 ADD SWAP2 PUSH2 0xE6A JUMP JUMPDEST DUP3 ADD SWAP2 SWAP1 PUSH1 0x0 MSTORE PUSH1 0x20 PUSH1 0x0 KECCAK256 SWAP1 JUMPDEST DUP2 SLOAD DUP2 MSTORE SWAP1 PUSH1 0x1 ADD SWAP1 PUSH1 0x20 ADD DUP1 DUP4 GT PUSH2 0xE4D JUMPI DUP3 SWAP1 SUB PUSH1 0x1F AND DUP3 ADD SWAP2 JUMPDEST POP POP POP POP POP DUP2 MSTORE PUSH1 0x20 ADD DUP3 PUSH1 0xC ADD DUP1 SLOAD PUSH2 0xE83 SWAP1 PUSH2 0x2173 JUMP JUMPDEST DUP1 PUSH1 0x1F ADD PUSH1 0x20 DUP1 SWAP2 DIV MUL PUSH1 0x20 ADD PUSH1 0x40 MLOAD SWAP1 DUP2 ADD PUSH1 0x40 MSTORE DUP1 SWAP3 SWAP2 SWAP1 DUP2 DUP2 MSTORE PUSH1 0x20 ADD DUP3 DUP1 SLOAD PUSH2 0xEAF SWAP1 PUSH2 0x2173 JUMP JUMPDEST DUP1 ISZERO PUSH2 0xEFC JUMPI DUP1 PUSH1 0x1F LT PUSH2 0xED1 JUMPI PUSH2 0x100 DUP1 DUP4 SLOAD DIV MUL DUP4 MSTORE SWAP2 PUSH1 0x20 ADD SWAP2 PUSH2 0xEFC JUMP JUMPDEST DUP3 ADD SWAP2 SWAP1 PUSH1 0x0 MSTORE PUSH1 0x20 PUSH1 0x0 KECCAK256 SWAP1 JUMPDEST DUP2 SLOAD DUP2 MSTORE SWAP1 PUSH1 0x1 ADD SWAP1 PUSH1 0x20 ADD DUP1 DUP4 GT PUSH2 0xEDF JUMPI DUP3 SWAP1 SUB PUSH1 0x1F AND DUP3 ADD SWAP2 JUMPDEST POP POP POP SWAP2 SWAP1 SWAP3 MSTORE POP POP PUSH1 0x40 DUP1 MLOAD PUSH1 0xA0 DUP2 ADD DUP3 MSTORE PUSH1 0x14 SWAP1 SWAP4 ADD SLOAD PUSH1 0xFF DUP1 DUP3 AND ISZERO ISZERO DUP6 MSTORE PUSH2 0x100 DUP3 DIV DUP2 AND ISZERO ISZERO PUSH1 0x20 DUP7 ADD MSTORE PUSH3 0x10000 DUP3 DIV DUP2 AND ISZERO ISZERO SWAP3 DUP6 ADD SWAP3 SWAP1 SWAP3 MSTORE PUSH4 0x1000000 DUP2 DIV DUP3 AND ISZERO ISZERO PUSH1 0x60 DUP6 ADD MSTORE PUSH5 0x100000000 SWAP1 DIV AND ISZERO ISZERO PUSH1 0x80 DUP4 ADD MSTORE SWAP5 SWAP7 SWAP4 SWAP6 POP SWAP3 SWAP2 POP POP JUMP JUMPDEST DUP5 PUSH1 0x2 DUP2 PUSH1 0x40 MLOAD PUSH2 0xF79 SWAP2 SWAP1 PUSH2 0x212A JUMP JUMPDEST SWAP1 DUP2 MSTORE PUSH1 0x40 MLOAD SWAP1 DUP2 SWAP1 SUB PUSH1 0x20 ADD SWAP1 KECCAK256 SLOAD PUSH1 0xFF AND ISZERO PUSH2 0xFD9 JUMPI PUSH1 0x40 MLOAD PUSH3 0x461BCD PUSH1 0xE5 SHL DUP2 MSTORE PUSH1 0x20 PUSH1 0x4 DUP3 ADD MSTORE PUSH1 0x18 PUSH1 0x24 DUP3 ADD MSTORE PUSH32 0x557365726E616D6520616C7265616479206578697374732E0000000000000000 PUSH1 0x44 DUP3 ADD MSTORE PUSH1 0x64 ADD PUSH2 0x1A9 JUMP JUMPDEST PUSH1 0x0 DUP1 DUP8 PUSH1 0x40 MLOAD PUSH2 0xFEA SWAP2 SWAP1 PUSH2 0x212A JUMP JUMPDEST SWAP1 DUP2 MSTORE PUSH1 0x40 MLOAD SWAP1 DUP2 SWAP1 SUB PUSH1 0x20 ADD SWAP1 KECCAK256 DUP7 MLOAD SWAP1 SWAP2 POP DUP2 SWAP1 PUSH2 0x100A SWAP1 DUP3 PUSH2 0x21FC JUMP JUMPDEST POP PUSH1 0x20 DUP7 ADD MLOAD PUSH1 0x1 DUP3 ADD SWAP1 PUSH2 0x101F SWAP1 DUP3 PUSH2 0x21FC JUMP JUMPDEST POP PUSH1 0x2 DUP2 ADD PUSH2 0x102E DUP9 DUP3 PUSH2 0x21FC JUMP JUMPDEST POP PUSH1 0x40 DUP7 ADD MLOAD PUSH1 0x3 DUP3 ADD SWAP1 PUSH2 0x1043 SWAP1 DUP3 PUSH2 0x21FC JUMP JUMPDEST POP PUSH1 0x60 DUP7 ADD MLOAD PUSH1 0x4 DUP3 ADD SWAP1 PUSH2 0x1058 SWAP1 DUP3 PUSH2 0x21FC JUMP JUMPDEST POP PUSH1 0xA0 DUP7 ADD MLOAD PUSH1 0x6 DUP3 ADD SWAP1 PUSH2 0x106D SWAP1 DUP3 PUSH2 0x21FC JUMP JUMPDEST POP PUSH1 0x80 DUP7 ADD MLOAD PUSH1 0x5 DUP3 ADD SWAP1 PUSH2 0x1082 SWAP1 DUP3 PUSH2 0x21FC JUMP JUMPDEST POP DUP4 MLOAD PUSH1 0x8 DUP3 ADD SWAP1 PUSH2 0x1094 SWAP1 DUP3 PUSH2 0x21FC JUMP JUMPDEST POP PUSH1 0x20 DUP5 ADD MLOAD PUSH1 0x9 DUP3 ADD SWAP1 PUSH2 0x10A9 SWAP1 DUP3 PUSH2 0x21FC JUMP JUMPDEST POP PUSH1 0x40 DUP5 ADD MLOAD PUSH1 0xA DUP3 ADD SWAP1 PUSH2 0x10BE SWAP1 DUP3 PUSH2 0x21FC JUMP JUMPDEST POP PUSH1 0x60 DUP5 ADD MLOAD PUSH1 0xB DUP3 ADD SWAP1 PUSH2 0x10D3 SWAP1 DUP3 PUSH2 0x21FC JUMP JUMPDEST POP PUSH1 0x80 DUP5 ADD MLOAD PUSH1 0xC DUP3 ADD SWAP1 PUSH2 0x10E8 SWAP1 DUP3 PUSH2 0x21FC JUMP JUMPDEST POP DUP5 MLOAD PUSH1 0xD DUP3 ADD SWAP1 PUSH2 0x10FA SWAP1 DUP3 PUSH2 0x21FC JUMP JUMPDEST POP PUSH1 0x40 DUP6 ADD MLOAD PUSH1 0xE DUP3 ADD SWAP1 PUSH2 0x110F SWAP1 DUP3 PUSH2 0x21FC JUMP JUMPDEST POP PUSH1 0x60 DUP6 ADD MLOAD PUSH1 0x7 DUP3 ADD SWAP1 PUSH2 0x1124 SWAP1 DUP3 PUSH2 0x21FC JUMP JUMPDEST POP PUSH1 0x20 DUP6 ADD MLOAD PUSH1 0xF DUP3 ADD SWAP1 PUSH2 0x1139 SWAP1 DUP3 PUSH2 0x21FC JUMP JUMPDEST POP PUSH1 0x80 DUP6 ADD MLOAD DUP1 MLOAD PUSH2 0x1155 SWAP2 PUSH1 0x10 DUP5 ADD SWAP2 PUSH1 0x20 SWAP1 SWAP2 ADD SWAP1 PUSH2 0x1617 JUMP JUMPDEST POP PUSH1 0xA0 DUP6 ADD MLOAD PUSH1 0x11 DUP3 ADD SWAP1 PUSH2 0x116A SWAP1 DUP3 PUSH2 0x21FC JUMP JUMPDEST POP DUP3 MLOAD PUSH1 0x14 DUP3 ADD DUP1 SLOAD PUSH1 0x20 DUP1 DUP8 ADD MLOAD PUSH1 0x40 DUP1 DUP10 ADD MLOAD PUSH1 0x60 DUP11 ADD MLOAD PUSH1 0x80 DUP12 ADD MLOAD ISZERO ISZERO PUSH5 0x100000000 MUL PUSH5 0xFF00000000 NOT SWAP2 ISZERO ISZERO PUSH4 0x1000000 MUL PUSH4 0xFF000000 NOT SWAP4 ISZERO ISZERO PUSH3 0x10000 MUL SWAP4 SWAP1 SWAP4 AND PUSH4 0xFFFF0000 NOT SWAP6 ISZERO ISZERO PUSH2 0x100 MUL PUSH2 0xFF00 NOT SWAP11 ISZERO ISZERO SWAP11 SWAP1 SWAP11 AND PUSH2 0xFFFF NOT SWAP1 SWAP9 AND SWAP8 SWAP1 SWAP8 OR SWAP9 SWAP1 SWAP9 OR SWAP4 SWAP1 SWAP4 AND SWAP5 SWAP1 SWAP5 OR SWAP4 SWAP1 SWAP4 OR AND SWAP4 SWAP1 SWAP4 OR SWAP1 SWAP2 SSTORE PUSH1 0x12 DUP4 ADD DUP1 SLOAD PUSH1 0xFF NOT AND PUSH1 0x1 SWAP1 DUP2 OR SWAP1 SWAP2 SSTORE CALLER PUSH1 0x0 SWAP1 DUP2 MSTORE SWAP3 MSTORE SWAP1 KECCAK256 PUSH2 0x1215 DUP9 DUP3 PUSH2 0x21FC JUMP JUMPDEST POP PUSH1 0x1 PUSH1 0x2 DUP9 PUSH1 0x40 MLOAD PUSH2 0x1228 SWAP2 SWAP1 PUSH2 0x212A JUMP JUMPDEST SWAP1 DUP2 MSTORE PUSH1 0x40 MLOAD SWAP1 DUP2 SWAP1 SUB PUSH1 0x20 ADD SWAP1 KECCAK256 DUP1 SLOAD SWAP2 ISZERO ISZERO PUSH1 0xFF NOT SWAP1 SWAP3 AND SWAP2 SWAP1 SWAP2 OR SWAP1 SSTORE POP POP POP POP POP POP POP JUMP JUMPDEST PUSH1 0x0 DUP7 PUSH1 0x40 MLOAD PUSH2 0x1261 SWAP2 SWAP1 PUSH2 0x212A JUMP JUMPDEST SWAP1 DUP2 MSTORE PUSH1 0x40 MLOAD SWAP1 DUP2 SWAP1 SUB PUSH1 0x20 ADD SWAP1 KECCAK256 PUSH1 0x12 ADD SLOAD PUSH1 0xFF AND PUSH2 0x1293 JUMPI PUSH1 0x40 MLOAD PUSH3 0x461BCD PUSH1 0xE5 SHL DUP2 MSTORE PUSH1 0x4 ADD PUSH2 0x1A9 SWAP1 PUSH2 0x2146 JUMP JUMPDEST PUSH1 0x0 DUP1 DUP8 PUSH1 0x40 MLOAD PUSH2 0x12A4 SWAP2 SWAP1 PUSH2 0x212A JUMP JUMPDEST SWAP1 DUP2 MSTORE PUSH1 0x40 MLOAD PUSH1 0x20 SWAP2 DUP2 SWAP1 SUB SWAP2 SWAP1 SWAP2 ADD SWAP1 KECCAK256 PUSH1 0x14 ADD DUP1 SLOAD PUSH4 0xFFFF0000 NOT AND PUSH3 0x10000 SWAP8 ISZERO ISZERO SWAP8 SWAP1 SWAP8 MUL PUSH4 0xFF000000 NOT AND SWAP7 SWAP1 SWAP7 OR PUSH4 0x1000000 SWAP6 ISZERO ISZERO SWAP6 SWAP1 SWAP6 MUL SWAP5 SWAP1 SWAP5 OR PUSH5 0xFF0000FF00 NOT AND PUSH5 0x100000000 SWAP4 ISZERO ISZERO SWAP4 SWAP1 SWAP4 MUL PUSH2 0xFF00 NOT AND SWAP3 SWAP1 SWAP3 OR PUSH2 0x100 SWAP2 ISZERO ISZERO SWAP2 SWAP1 SWAP2 MUL OR PUSH1 0xFF NOT AND SWAP1 ISZERO ISZERO OR SWAP1 SWAP2 SSTORE POP POP JUMP JUMPDEST PUSH1 0x1 PUSH1 0x1 PUSH1 0xA0 SHL SUB DUP2 AND PUSH1 0x0 SWAP1 DUP2 MSTORE PUSH1 0x1 PUSH1 0x20 MSTORE PUSH1 0x40 SWAP1 KECCAK256 DUP1 SLOAD PUSH1 0x60 SWAP2 SWAP1 PUSH2 0x1347 SWAP1 PUSH2 0x2173 JUMP JUMPDEST DUP1 PUSH1 0x1F ADD PUSH1 0x20 DUP1 SWAP2 DIV MUL PUSH1 0x20 ADD PUSH1 0x40 MLOAD SWAP1 DUP2 ADD PUSH1 0x40 MSTORE DUP1 SWAP3 SWAP2 SWAP1 DUP2 DUP2 MSTORE PUSH1 0x20 ADD DUP3 DUP1 SLOAD PUSH2 0x1373 SWAP1 PUSH2 0x2173 JUMP JUMPDEST DUP1 ISZERO PUSH2 0x13C0 JUMPI DUP1 PUSH1 0x1F LT PUSH2 0x1395 JUMPI PUSH2 0x100 DUP1 DUP4 SLOAD DIV MUL DUP4 MSTORE SWAP2 PUSH1 0x20 ADD SWAP2 PUSH2 0x13C0 JUMP JUMPDEST DUP3 ADD SWAP2 SWAP1 PUSH1 0x0 MSTORE PUSH1 0x20 PUSH1 0x0 KECCAK256 SWAP1 JUMPDEST DUP2 SLOAD DUP2 MSTORE SWAP1 PUSH1 0x1 ADD SWAP1 PUSH1 0x20 ADD DUP1 DUP4 GT PUSH2 0x13A3 JUMPI DUP3 SWAP1 SUB PUSH1 0x1F AND DUP3 ADD SWAP2 JUMPDEST POP POP POP POP POP SWAP1 POP SWAP2 SWAP1 POP JUMP JUMPDEST PUSH1 0x0 DUP6 PUSH1 0x40 MLOAD PUSH2 0x13DC SWAP2 SWAP1 PUSH2 0x212A JUMP JUMPDEST SWAP1 DUP2 MSTORE PUSH1 0x40 MLOAD SWAP1 DUP2 SWAP1 SUB PUSH1 0x20 ADD SWAP1 KECCAK256 PUSH1 0x12 ADD SLOAD PUSH1 0xFF AND PUSH2 0x140E JUMPI PUSH1 0x40 MLOAD PUSH3 0x461BCD PUSH1 0xE5 SHL DUP2 MSTORE PUSH1 0x4 ADD PUSH2 0x1A9 SWAP1 PUSH2 0x2146 JUMP JUMPDEST PUSH1 0x0 DUP1 DUP7 PUSH1 0x40 MLOAD PUSH2 0x141F SWAP2 SWAP1 PUSH2 0x212A JUMP JUMPDEST SWAP1 DUP2 MSTORE PUSH1 0x40 MLOAD SWAP1 DUP2 SWAP1 SUB PUSH1 0x20 ADD SWAP1 KECCAK256 DUP6 MLOAD SWAP1 SWAP2 POP DUP2 SWAP1 PUSH2 0x143F SWAP1 DUP3 PUSH2 0x21FC JUMP JUMPDEST POP PUSH1 0x20 DUP6 ADD MLOAD PUSH1 0x1 DUP3 ADD SWAP1 PUSH2 0x1454 SWAP1 DUP3 PUSH2 0x21FC JUMP JUMPDEST POP PUSH1 0x40 DUP6 ADD MLOAD PUSH1 0x3 DUP3 ADD SWAP1 PUSH2 0x1469 SWAP1 DUP3 PUSH2 0x21FC JUMP JUMPDEST POP PUSH1 0x60 DUP6 ADD MLOAD PUSH1 0x4 DUP3 ADD SWAP1 PUSH2 0x147E SWAP1 DUP3 PUSH2 0x21FC JUMP JUMPDEST POP PUSH1 0xA0 DUP6 ADD MLOAD PUSH1 0x6 DUP3 ADD SWAP1 PUSH2 0x1493 SWAP1 DUP3 PUSH2 0x21FC JUMP JUMPDEST POP PUSH1 0x80 DUP6 ADD MLOAD PUSH1 0x5 DUP3 ADD SWAP1 PUSH2 0x14A8 SWAP1 DUP3 PUSH2 0x21FC JUMP JUMPDEST POP DUP3 MLOAD PUSH1 0x8 DUP3 ADD SWAP1 PUSH2 0x14BA SWAP1 DUP3 PUSH2 0x21FC JUMP JUMPDEST POP PUSH1 0x20 DUP4 ADD MLOAD PUSH1 0x9 DUP3 ADD SWAP1 PUSH2 0x14CF SWAP1 DUP3 PUSH2 0x21FC JUMP JUMPDEST POP PUSH1 0x40 DUP4 ADD MLOAD PUSH1 0xA DUP3 ADD SWAP1 PUSH2 0x14E4 SWAP1 DUP3 PUSH2 0x21FC JUMP JUMPDEST POP PUSH1 0x60 DUP4 ADD MLOAD PUSH1 0xB DUP3 ADD SWAP1 PUSH2 0x14F9 SWAP1 DUP3 PUSH2 0x21FC JUMP JUMPDEST POP PUSH1 0x80 DUP4 ADD MLOAD PUSH1 0xC DUP3 ADD SWAP1 PUSH2 0x150E SWAP1 DUP3 PUSH2 0x21FC JUMP JUMPDEST POP DUP4 MLOAD PUSH1 0xD DUP3 ADD SWAP1 PUSH2 0x1520 SWAP1 DUP3 PUSH2 0x21FC JUMP JUMPDEST POP PUSH1 0x40 DUP5 ADD MLOAD PUSH1 0xE DUP3 ADD SWAP1 PUSH2 0x1535 SWAP1 DUP3 PUSH2 0x21FC JUMP JUMPDEST POP PUSH1 0x60 DUP5 ADD MLOAD PUSH1 0x7 DUP3 ADD SWAP1 PUSH2 0x154A SWAP1 DUP3 PUSH2 0x21FC JUMP JUMPDEST POP PUSH1 0x20 DUP5 ADD MLOAD PUSH1 0xF DUP3 ADD SWAP1 PUSH2 0x155F SWAP1 DUP3 PUSH2 0x21FC JUMP JUMPDEST POP PUSH1 0x80 DUP5 ADD MLOAD DUP1 MLOAD PUSH2 0x157B SWAP2 PUSH1 0x10 DUP5 ADD SWAP2 PUSH1 0x20 SWAP1 SWAP2 ADD SWAP1 PUSH2 0x1617 JUMP JUMPDEST POP PUSH1 0xA0 DUP5 ADD MLOAD PUSH1 0x11 DUP3 ADD SWAP1 PUSH2 0x1590 SWAP1 DUP3 PUSH2 0x21FC JUMP JUMPDEST POP DUP2 MLOAD PUSH1 0x14 SWAP1 SWAP2 ADD DUP1 SLOAD PUSH1 0x20 DUP5 ADD MLOAD PUSH1 0x40 DUP6 ADD MLOAD PUSH1 0x60 DUP7 ADD MLOAD PUSH1 0x80 SWAP1 SWAP7 ADD MLOAD ISZERO ISZERO PUSH5 0x100000000 MUL PUSH5 0xFF00000000 NOT SWAP7 ISZERO ISZERO PUSH4 0x1000000 MUL PUSH4 0xFF000000 NOT SWAP3 ISZERO ISZERO PUSH3 0x10000 MUL SWAP3 SWAP1 SWAP3 AND PUSH4 0xFFFF0000 NOT SWAP4 ISZERO ISZERO PUSH2 0x100 MUL PUSH2 0xFF00 NOT SWAP8 ISZERO ISZERO SWAP8 SWAP1 SWAP8 AND PUSH2 0xFFFF NOT SWAP1 SWAP6 AND SWAP5 SWAP1 SWAP5 OR SWAP6 SWAP1 SWAP6 OR SWAP2 SWAP1 SWAP2 AND SWAP2 SWAP1 SWAP2 OR OR SWAP3 SWAP1 SWAP3 AND OR SWAP1 SSTORE POP POP POP POP JUMP JUMPDEST DUP3 DUP1 SLOAD DUP3 DUP3 SSTORE SWAP1 PUSH1 0x0 MSTORE PUSH1 0x20 PUSH1 0x0 KECCAK256 SWAP1 DUP2 ADD SWAP3 DUP3 ISZERO PUSH2 0x165D JUMPI SWAP2 PUSH1 0x20 MUL DUP3 ADD JUMPDEST DUP3 DUP2 GT ISZERO PUSH2 0x165D JUMPI DUP3 MLOAD DUP3 SWAP1 PUSH2 0x164D SWAP1 DUP3 PUSH2 0x21FC JUMP JUMPDEST POP SWAP2 PUSH1 0x20 ADD SWAP2 SWAP1 PUSH1 0x1 ADD SWAP1 PUSH2 0x1637 JUMP JUMPDEST POP PUSH2 0x1669 SWAP3 SWAP2 POP PUSH2 0x166D JUMP JUMPDEST POP SWAP1 JUMP JUMPDEST DUP1 DUP3 GT ISZERO PUSH2 0x1669 JUMPI PUSH1 0x0 PUSH2 0x1681 DUP3 DUP3 PUSH2 0x168A JUMP JUMPDEST POP PUSH1 0x1 ADD PUSH2 0x166D JUMP JUMPDEST POP DUP1 SLOAD PUSH2 0x1696 SWAP1 PUSH2 0x2173 JUMP JUMPDEST PUSH1 0x0 DUP3 SSTORE DUP1 PUSH1 0x1F LT PUSH2 0x16A6 JUMPI POP POP JUMP JUMPDEST PUSH1 0x1F ADD PUSH1 0x20 SWAP1 DIV SWAP1 PUSH1 0x0 MSTORE PUSH1 0x20 PUSH1 0x0 KECCAK256 SWAP1 DUP2 ADD SWAP1 PUSH2 0x16C4 SWAP2 SWAP1 PUSH2 0x16C7 JUMP JUMPDEST POP JUMP JUMPDEST JUMPDEST DUP1 DUP3 GT ISZERO PUSH2 0x1669 JUMPI PUSH1 0x0 DUP2 SSTORE PUSH1 0x1 ADD PUSH2 0x16C8 JUMP JUMPDEST PUSH4 0x4E487B71 PUSH1 0xE0 SHL PUSH1 0x0 MSTORE PUSH1 0x41 PUSH1 0x4 MSTORE PUSH1 0x24 PUSH1 0x0 REVERT JUMPDEST PUSH1 0x40 MLOAD PUSH1 0xC0 DUP2 ADD PUSH1 0x1 PUSH1 0x1 PUSH1 0x40 SHL SUB DUP2 GT DUP3 DUP3 LT OR ISZERO PUSH2 0x1714 JUMPI PUSH2 0x1714 PUSH2 0x16DC JUMP JUMPDEST PUSH1 0x40 MSTORE SWAP1 JUMP JUMPDEST PUSH1 0x40 MLOAD PUSH1 0xA0 DUP2 ADD PUSH1 0x1 PUSH1 0x1 PUSH1 0x40 SHL SUB DUP2 GT DUP3 DUP3 LT OR ISZERO PUSH2 0x1714 JUMPI PUSH2 0x1714 PUSH2 0x16DC JUMP JUMPDEST PUSH1 0x40 MLOAD PUSH1 0x1F DUP3 ADD PUSH1 0x1F NOT AND DUP2 ADD PUSH1 0x1 PUSH1 0x1 PUSH1 0x40 SHL SUB DUP2 GT DUP3 DUP3 LT OR ISZERO PUSH2 0x1764 JUMPI PUSH2 0x1764 PUSH2 0x16DC JUMP JUMPDEST PUSH1 0x40 MSTORE SWAP2 SWAP1 POP JUMP JUMPDEST PUSH1 0x0 DUP3 PUSH1 0x1F DUP4 ADD SLT PUSH2 0x177D JUMPI PUSH1 0x0 DUP1 REVERT JUMPDEST DUP2 CALLDATALOAD PUSH1 0x1 PUSH1 0x1 PUSH1 0x40 SHL SUB DUP2 GT ISZERO PUSH2 0x1796 JUMPI PUSH2 0x1796 PUSH2 0x16DC JUMP JUMPDEST PUSH2 0x17A9 PUSH1 0x1F DUP3 ADD PUSH1 0x1F NOT AND PUSH1 0x20 ADD PUSH2 0x173C JUMP JUMPDEST DUP2 DUP2 MSTORE DUP5 PUSH1 0x20 DUP4 DUP7 ADD ADD GT ISZERO PUSH2 0x17BE JUMPI PUSH1 0x0 DUP1 REVERT JUMPDEST DUP2 PUSH1 0x20 DUP6 ADD PUSH1 0x20 DUP4 ADD CALLDATACOPY PUSH1 0x0 SWAP2 DUP2 ADD PUSH1 0x20 ADD SWAP2 SWAP1 SWAP2 MSTORE SWAP4 SWAP3 POP POP POP JUMP JUMPDEST PUSH1 0x0 PUSH1 0x20 DUP3 DUP5 SUB SLT ISZERO PUSH2 0x17ED JUMPI PUSH1 0x0 DUP1 REVERT JUMPDEST DUP2 CALLDATALOAD PUSH1 0x1 PUSH1 0x1 PUSH1 0x40 SHL SUB DUP2 GT ISZERO PUSH2 0x1803 JUMPI PUSH1 0x0 DUP1 REVERT JUMPDEST PUSH2 0x180F DUP5 DUP3 DUP6 ADD PUSH2 0x176C JUMP JUMPDEST SWAP5 SWAP4 POP POP POP POP JUMP JUMPDEST PUSH1 0xA0 DUP2 ADD PUSH2 0x185A DUP3 DUP5 DUP1 MLOAD ISZERO ISZERO DUP3 MSTORE PUSH1 0x20 DUP2 ADD MLOAD ISZERO ISZERO PUSH1 0x20 DUP4 ADD MSTORE PUSH1 0x40 DUP2 ADD MLOAD ISZERO ISZERO PUSH1 0x40 DUP4 ADD MSTORE PUSH1 0x60 DUP2 ADD MLOAD ISZERO ISZERO PUSH1 0x60 DUP4 ADD MSTORE PUSH1 0x80 DUP2 ADD MLOAD ISZERO ISZERO PUSH1 0x80 DUP4 ADD MSTORE POP POP JUMP JUMPDEST SWAP3 SWAP2 POP POP JUMP JUMPDEST PUSH1 0x0 PUSH1 0x20 DUP3 DUP5 SUB SLT ISZERO PUSH2 0x1872 JUMPI PUSH1 0x0 DUP1 REVERT JUMPDEST DUP2 CALLDATALOAD PUSH1 0x1 PUSH1 0x1 PUSH1 0xA0 SHL SUB DUP2 AND DUP2 EQ PUSH2 0x1889 JUMPI PUSH1 0x0 DUP1 REVERT JUMPDEST SWAP4 SWAP3 POP POP POP JUMP JUMPDEST PUSH1 0x0 JUMPDEST DUP4 DUP2 LT ISZERO PUSH2 0x18AB JUMPI DUP2 DUP2 ADD MLOAD DUP4 DUP3 ADD MSTORE PUSH1 0x20 ADD PUSH2 0x1893 JUMP JUMPDEST POP POP PUSH1 0x0 SWAP2 ADD MSTORE JUMP JUMPDEST PUSH1 0x0 DUP2 MLOAD DUP1 DUP5 MSTORE PUSH2 0x18CC DUP2 PUSH1 0x20 DUP7 ADD PUSH1 0x20 DUP7 ADD PUSH2 0x1890 JUMP JUMPDEST PUSH1 0x1F ADD PUSH1 0x1F NOT AND SWAP3 SWAP1 SWAP3 ADD PUSH1 0x20 ADD SWAP3 SWAP2 POP POP JUMP JUMPDEST PUSH1 0x0 DUP2 MLOAD PUSH1 0xC0 DUP5 MSTORE PUSH2 0x18F5 PUSH1 0xC0 DUP6 ADD DUP3 PUSH2 0x18B4 JUMP JUMPDEST SWAP1 POP PUSH1 0x20 DUP4 ADD MLOAD DUP5 DUP3 SUB PUSH1 0x20 DUP7 ADD MSTORE PUSH2 0x190E DUP3 DUP3 PUSH2 0x18B4 JUMP JUMPDEST SWAP2 POP POP PUSH1 0x40 DUP4 ADD MLOAD DUP5 DUP3 SUB PUSH1 0x40 DUP7 ADD MSTORE PUSH2 0x1928 DUP3 DUP3 PUSH2 0x18B4 JUMP JUMPDEST SWAP2 POP POP PUSH1 0x60 DUP4 ADD MLOAD DUP5 DUP3 SUB PUSH1 0x60 DUP7 ADD MSTORE PUSH2 0x1942 DUP3 DUP3 PUSH2 0x18B4 JUMP JUMPDEST SWAP2 POP POP PUSH1 0x80 DUP4 ADD MLOAD DUP5 DUP3 SUB PUSH1 0x80 DUP7 ADD MSTORE DUP2 DUP2 MLOAD DUP1 DUP5 MSTORE PUSH1 0x20 DUP5 ADD SWAP2 POP PUSH1 0x20 DUP2 PUSH1 0x5 SHL DUP6 ADD ADD PUSH1 0x20 DUP5 ADD SWAP4 POP PUSH1 0x0 JUMPDEST DUP3 DUP2 LT ISZERO PUSH2 0x19A1 JUMPI PUSH1 0x1F NOT DUP7 DUP4 SUB ADD DUP5 MSTORE PUSH2 0x198C DUP3 DUP7 MLOAD PUSH2 0x18B4 JUMP JUMPDEST PUSH1 0x20 SWAP6 DUP7 ADD SWAP6 SWAP5 SWAP1 SWAP5 ADD SWAP4 SWAP2 POP PUSH1 0x1 ADD PUSH2 0x1970 JUMP JUMPDEST POP PUSH1 0xA0 DUP8 ADD MLOAD SWAP5 POP DUP8 DUP2 SUB PUSH1 0xA0 DUP10 ADD MSTORE PUSH2 0x19BB DUP2 DUP7 PUSH2 0x18B4 JUMP JUMPDEST SWAP9 SWAP8 POP POP POP POP POP POP POP POP JUMP JUMPDEST PUSH1 0x0 DUP2 MLOAD PUSH1 0xA0 DUP5 MSTORE PUSH2 0x19DC PUSH1 0xA0 DUP6 ADD DUP3 PUSH2 0x18B4 JUMP JUMPDEST SWAP1 POP PUSH1 0x20 DUP4 ADD MLOAD DUP5 DUP3 SUB PUSH1 0x20 DUP7 ADD MSTORE PUSH2 0x19F5 DUP3 DUP3 PUSH2 0x18B4 JUMP JUMPDEST SWAP2 POP POP PUSH1 0x40 DUP4 ADD MLOAD DUP5 DUP3 SUB PUSH1 0x40 DUP7 ADD MSTORE PUSH2 0x1A0F DUP3 DUP3 PUSH2 0x18B4 JUMP JUMPDEST SWAP2 POP POP PUSH1 0x60 DUP4 ADD MLOAD DUP5 DUP3 SUB PUSH1 0x60 DUP7 ADD MSTORE PUSH2 0x1A29 DUP3 DUP3 PUSH2 0x18B4 JUMP JUMPDEST SWAP2 POP POP PUSH1 0x80 DUP4 ADD MLOAD DUP5 DUP3 SUB PUSH1 0x80 DUP7 ADD MSTORE PUSH2 0x1A43 DUP3 DUP3 PUSH2 0x18B4 JUMP JUMPDEST SWAP6 SWAP5 POP POP POP POP POP JUMP JUMPDEST PUSH2 0x100 DUP2 MSTORE PUSH1 0x0 DUP6 MLOAD PUSH1 0xC0 PUSH2 0x100 DUP5 ADD MSTORE PUSH2 0x1A6B PUSH2 0x1C0 DUP5 ADD DUP3 PUSH2 0x18B4 JUMP JUMPDEST SWAP1 POP PUSH1 0x20 DUP8 ADD MLOAD PUSH1 0xFF NOT DUP5 DUP4 SUB ADD PUSH2 0x120 DUP6 ADD MSTORE PUSH2 0x1A89 DUP3 DUP3 PUSH2 0x18B4 JUMP JUMPDEST SWAP2 POP POP PUSH1 0x40 DUP8 ADD MLOAD PUSH1 0xFF NOT DUP5 DUP4 SUB ADD PUSH2 0x140 DUP6 ADD MSTORE PUSH2 0x1AA8 DUP3 DUP3 PUSH2 0x18B4 JUMP JUMPDEST SWAP2 POP POP PUSH1 0x60 DUP8 ADD MLOAD PUSH1 0xFF NOT DUP5 DUP4 SUB ADD PUSH2 0x160 DUP6 ADD MSTORE PUSH2 0x1AC7 DUP3 DUP3 PUSH2 0x18B4 JUMP JUMPDEST SWAP2 POP POP PUSH1 0x80 DUP8 ADD MLOAD PUSH1 0xFF NOT DUP5 DUP4 SUB ADD PUSH2 0x180 DUP6 ADD MSTORE PUSH2 0x1AE6 DUP3 DUP3 PUSH2 0x18B4 JUMP JUMPDEST SWAP2 POP POP PUSH1 0xA0 DUP8 ADD MLOAD PUSH1 0xFF NOT DUP5 DUP4 SUB ADD PUSH2 0x1A0 DUP6 ADD MSTORE PUSH2 0x1B05 DUP3 DUP3 PUSH2 0x18B4 JUMP JUMPDEST SWAP2 POP POP DUP3 DUP2 SUB PUSH1 0x20 DUP5 ADD MSTORE PUSH2 0x1B1A DUP2 DUP8 PUSH2 0x18E0 JUMP JUMPDEST SWAP1 POP DUP3 DUP2 SUB PUSH1 0x40 DUP5 ADD MSTORE PUSH2 0x1B2E DUP2 DUP7 PUSH2 0x19C7 JUMP JUMPDEST SWAP2 POP POP PUSH2 0x1A43 PUSH1 0x60 DUP4 ADD DUP5 DUP1 MLOAD ISZERO ISZERO DUP3 MSTORE PUSH1 0x20 DUP2 ADD MLOAD ISZERO ISZERO PUSH1 0x20 DUP4 ADD MSTORE PUSH1 0x40 DUP2 ADD MLOAD ISZERO ISZERO PUSH1 0x40 DUP4 ADD MSTORE PUSH1 0x60 DUP2 ADD MLOAD ISZERO ISZERO PUSH1 0x60 DUP4 ADD MSTORE PUSH1 0x80 DUP2 ADD MLOAD ISZERO ISZERO PUSH1 0x80 DUP4 ADD MSTORE POP POP JUMP JUMPDEST PUSH1 0x0 DUP3 PUSH1 0x1F DUP4 ADD SLT PUSH2 0x1B84 JUMPI PUSH1 0x0 DUP1 REVERT JUMPDEST DUP2 CALLDATALOAD PUSH1 0x1 PUSH1 0x1 PUSH1 0x40 SHL SUB DUP2 GT ISZERO PUSH2 0x1B9D JUMPI PUSH2 0x1B9D PUSH2 0x16DC JUMP JUMPDEST DUP1 PUSH1 0x5 SHL PUSH2 0x1BAD PUSH1 0x20 DUP3 ADD PUSH2 0x173C JUMP JUMPDEST SWAP2 DUP3 MSTORE PUSH1 0x20 DUP2 DUP6 ADD DUP2 ADD SWAP3 SWAP1 DUP2 ADD SWAP1 DUP7 DUP5 GT ISZERO PUSH2 0x1BC9 JUMPI PUSH1 0x0 DUP1 REVERT JUMPDEST PUSH1 0x20 DUP7 ADD SWAP3 POP JUMPDEST DUP4 DUP4 LT ISZERO PUSH2 0x1C0F JUMPI DUP3 CALLDATALOAD PUSH1 0x1 PUSH1 0x1 PUSH1 0x40 SHL SUB DUP2 GT ISZERO PUSH2 0x1BEE JUMPI PUSH1 0x0 DUP1 REVERT JUMPDEST PUSH2 0x1BFD DUP9 PUSH1 0x20 DUP4 DUP11 ADD ADD PUSH2 0x176C JUMP JUMPDEST DUP4 MSTORE POP PUSH1 0x20 SWAP3 DUP4 ADD SWAP3 SWAP1 SWAP2 ADD SWAP1 PUSH2 0x1BD0 JUMP JUMPDEST SWAP7 SWAP6 POP POP POP POP POP POP JUMP JUMPDEST PUSH1 0x0 PUSH1 0xC0 DUP3 DUP5 SUB SLT ISZERO PUSH2 0x1C2B JUMPI PUSH1 0x0 DUP1 REVERT JUMPDEST PUSH2 0x1C33 PUSH2 0x16F2 JUMP JUMPDEST SWAP1 POP DUP2 CALLDATALOAD PUSH1 0x1 PUSH1 0x1 PUSH1 0x40 SHL SUB DUP2 GT ISZERO PUSH2 0x1C4B JUMPI PUSH1 0x0 DUP1 REVERT JUMPDEST PUSH2 0x1C57 DUP5 DUP3 DUP6 ADD PUSH2 0x176C JUMP JUMPDEST DUP3 MSTORE POP PUSH1 0x20 DUP3 ADD CALLDATALOAD PUSH1 0x1 PUSH1 0x1 PUSH1 0x40 SHL SUB DUP2 GT ISZERO PUSH2 0x1C73 JUMPI PUSH1 0x0 DUP1 REVERT JUMPDEST PUSH2 0x1C7F DUP5 DUP3 DUP6 ADD PUSH2 0x176C JUMP JUMPDEST PUSH1 0x20 DUP4 ADD MSTORE POP PUSH1 0x40 DUP3 ADD CALLDATALOAD PUSH1 0x1 PUSH1 0x1 PUSH1 0x40 SHL SUB DUP2 GT ISZERO PUSH2 0x1C9E JUMPI PUSH1 0x0 DUP1 REVERT JUMPDEST PUSH2 0x1CAA DUP5 DUP3 DUP6 ADD PUSH2 0x176C JUMP JUMPDEST PUSH1 0x40 DUP4 ADD MSTORE POP PUSH1 0x60 DUP3 ADD CALLDATALOAD PUSH1 0x1 PUSH1 0x1 PUSH1 0x40 SHL SUB DUP2 GT ISZERO PUSH2 0x1CC9 JUMPI PUSH1 0x0 DUP1 REVERT JUMPDEST PUSH2 0x1CD5 DUP5 DUP3 DUP6 ADD PUSH2 0x176C JUMP JUMPDEST PUSH1 0x60 DUP4 ADD MSTORE POP PUSH1 0x80 DUP3 ADD CALLDATALOAD PUSH1 0x1 PUSH1 0x1 PUSH1 0x40 SHL SUB DUP2 GT ISZERO PUSH2 0x1CF4 JUMPI PUSH1 0x0 DUP1 REVERT JUMPDEST PUSH2 0x1D00 DUP5 DUP3 DUP6 ADD PUSH2 0x1B73 JUMP JUMPDEST PUSH1 0x80 DUP4 ADD MSTORE POP PUSH1 0xA0 DUP3 ADD CALLDATALOAD PUSH1 0x1 PUSH1 0x1 PUSH1 0x40 SHL SUB DUP2 GT ISZERO PUSH2 0x1D1F JUMPI PUSH1 0x0 DUP1 REVERT JUMPDEST PUSH2 0x1D2B DUP5 DUP3 DUP6 ADD PUSH2 0x176C JUMP JUMPDEST PUSH1 0xA0 DUP4 ADD MSTORE POP SWAP3 SWAP2 POP POP JUMP JUMPDEST PUSH1 0x0 PUSH1 0xA0 DUP3 DUP5 SUB SLT ISZERO PUSH2 0x1D49 JUMPI PUSH1 0x0 DUP1 REVERT JUMPDEST PUSH2 0x1D51 PUSH2 0x171A JUMP JUMPDEST SWAP1 POP DUP2 CALLDATALOAD PUSH1 0x1 PUSH1 0x1 PUSH1 0x40 SHL SUB DUP2 GT ISZERO PUSH2 0x1D69 JUMPI PUSH1 0x0 DUP1 REVERT JUMPDEST PUSH2 0x1D75 DUP5 DUP3 DUP6 ADD PUSH2 0x176C JUMP JUMPDEST DUP3 MSTORE POP PUSH1 0x20 DUP3 ADD CALLDATALOAD PUSH1 0x1 PUSH1 0x1 PUSH1 0x40 SHL SUB DUP2 GT ISZERO PUSH2 0x1D91 JUMPI PUSH1 0x0 DUP1 REVERT JUMPDEST PUSH2 0x1D9D DUP5 DUP3 DUP6 ADD PUSH2 0x176C JUMP JUMPDEST PUSH1 0x20 DUP4 ADD MSTORE POP PUSH1 0x40 DUP3 ADD CALLDATALOAD PUSH1 0x1 PUSH1 0x1 PUSH1 0x40 SHL SUB DUP2 GT ISZERO PUSH2 0x1DBC JUMPI PUSH1 0x0 DUP1 REVERT JUMPDEST PUSH2 0x1DC8 DUP5 DUP3 DUP6 ADD PUSH2 0x176C JUMP JUMPDEST PUSH1 0x40 DUP4 ADD MSTORE POP PUSH1 0x60 DUP3 ADD CALLDATALOAD PUSH1 0x1 PUSH1 0x1 PUSH1 0x40 SHL SUB DUP2 GT ISZERO PUSH2 0x1DE7 JUMPI PUSH1 0x0 DUP1 REVERT JUMPDEST PUSH2 0x1DF3 DUP5 DUP3 DUP6 ADD PUSH2 0x176C JUMP JUMPDEST PUSH1 0x60 DUP4 ADD MSTORE POP PUSH1 0x80 DUP3 ADD CALLDATALOAD PUSH1 0x1 PUSH1 0x1 PUSH1 0x40 SHL SUB DUP2 GT ISZERO PUSH2 0x1E12 JUMPI PUSH1 0x0 DUP1 REVERT JUMPDEST PUSH2 0x1E1E DUP5 DUP3 DUP6 ADD PUSH2 0x176C JUMP JUMPDEST PUSH1 0x80 DUP4 ADD MSTORE POP SWAP3 SWAP2 POP POP JUMP JUMPDEST DUP1 CALLDATALOAD DUP1 ISZERO ISZERO DUP2 EQ PUSH2 0x1E3A JUMPI PUSH1 0x0 DUP1 REVERT JUMPDEST SWAP2 SWAP1 POP JUMP JUMPDEST PUSH1 0x0 PUSH1 0xA0 DUP3 DUP5 SUB SLT ISZERO PUSH2 0x1E51 JUMPI PUSH1 0x0 DUP1 REVERT JUMPDEST PUSH2 0x1E59 PUSH2 0x171A JUMP JUMPDEST SWAP1 POP PUSH2 0x1E64 DUP3 PUSH2 0x1E2A JUMP JUMPDEST DUP2 MSTORE PUSH2 0x1E72 PUSH1 0x20 DUP4 ADD PUSH2 0x1E2A JUMP JUMPDEST PUSH1 0x20 DUP3 ADD MSTORE PUSH2 0x1E83 PUSH1 0x40 DUP4 ADD PUSH2 0x1E2A JUMP JUMPDEST PUSH1 0x40 DUP3 ADD MSTORE PUSH2 0x1E94 PUSH1 0x60 DUP4 ADD PUSH2 0x1E2A JUMP JUMPDEST PUSH1 0x60 DUP3 ADD MSTORE PUSH2 0x1EA5 PUSH1 0x80 DUP4 ADD PUSH2 0x1E2A JUMP JUMPDEST PUSH1 0x80 DUP3 ADD MSTORE SWAP3 SWAP2 POP POP JUMP JUMPDEST PUSH1 0x0 DUP1 PUSH1 0x0 DUP1 PUSH1 0x0 PUSH2 0x120 DUP7 DUP9 SUB SLT ISZERO PUSH2 0x1EC9 JUMPI PUSH1 0x0 DUP1 REVERT JUMPDEST DUP6 CALLDATALOAD PUSH1 0x1 PUSH1 0x1 PUSH1 0x40 SHL SUB DUP2 GT ISZERO PUSH2 0x1EDF JUMPI PUSH1 0x0 DUP1 REVERT JUMPDEST PUSH2 0x1EEB DUP9 DUP3 DUP10 ADD PUSH2 0x176C JUMP JUMPDEST SWAP6 POP POP PUSH1 0x20 DUP7 ADD CALLDATALOAD PUSH1 0x1 PUSH1 0x1 PUSH1 0x40 SHL SUB DUP2 GT ISZERO PUSH2 0x1F07 JUMPI PUSH1 0x0 DUP1 REVERT JUMPDEST DUP7 ADD PUSH1 0xC0 DUP2 DUP10 SUB SLT ISZERO PUSH2 0x1F19 JUMPI PUSH1 0x0 DUP1 REVERT JUMPDEST PUSH2 0x1F21 PUSH2 0x16F2 JUMP JUMPDEST DUP2 CALLDATALOAD PUSH1 0x1 PUSH1 0x1 PUSH1 0x40 SHL SUB DUP2 GT ISZERO PUSH2 0x1F37 JUMPI PUSH1 0x0 DUP1 REVERT JUMPDEST PUSH2 0x1F43 DUP11 DUP3 DUP6 ADD PUSH2 0x176C JUMP JUMPDEST DUP3 MSTORE POP PUSH1 0x20 DUP3 ADD CALLDATALOAD PUSH1 0x1 PUSH1 0x1 PUSH1 0x40 SHL SUB DUP2 GT ISZERO PUSH2 0x1F5F JUMPI PUSH1 0x0 DUP1 REVERT JUMPDEST PUSH2 0x1F6B DUP11 DUP3 DUP6 ADD PUSH2 0x176C JUMP JUMPDEST PUSH1 0x20 DUP4 ADD MSTORE POP PUSH1 0x40 DUP3 ADD CALLDATALOAD PUSH1 0x1 PUSH1 0x1 PUSH1 0x40 SHL SUB DUP2 GT ISZERO PUSH2 0x1F8A JUMPI PUSH1 0x0 DUP1 REVERT JUMPDEST PUSH2 0x1F96 DUP11 DUP3 DUP6 ADD PUSH2 0x176C JUMP JUMPDEST PUSH1 0x40 DUP4 ADD MSTORE POP PUSH1 0x60 DUP3 ADD CALLDATALOAD PUSH1 0x1 PUSH1 0x1 PUSH1 0x40 SHL SUB DUP2 GT ISZERO PUSH2 0x1FB5 JUMPI PUSH1 0x0 DUP1 REVERT JUMPDEST PUSH2 0x1FC1 DUP11 DUP3 DUP6 ADD PUSH2 0x176C JUMP JUMPDEST PUSH1 0x60 DUP4 ADD MSTORE POP PUSH1 0x80 DUP3 ADD CALLDATALOAD PUSH1 0x1 PUSH1 0x1 PUSH1 0x40 SHL SUB DUP2 GT ISZERO PUSH2 0x1FE0 JUMPI PUSH1 0x0 DUP1 REVERT JUMPDEST PUSH2 0x1FEC DUP11 DUP3 DUP6 ADD PUSH2 0x176C JUMP JUMPDEST PUSH1 0x80 DUP4 ADD MSTORE POP PUSH1 0xA0 DUP3 ADD CALLDATALOAD PUSH1 0x1 PUSH1 0x1 PUSH1 0x40 SHL SUB DUP2 GT ISZERO PUSH2 0x200B JUMPI PUSH1 0x0 DUP1 REVERT JUMPDEST PUSH2 0x2017 DUP11 DUP3 DUP6 ADD PUSH2 0x176C JUMP JUMPDEST PUSH1 0xA0 DUP4 ADD MSTORE POP SWAP5 POP POP PUSH1 0x40 DUP7 ADD CALLDATALOAD PUSH1 0x1 PUSH1 0x1 PUSH1 0x40 SHL SUB DUP2 GT ISZERO PUSH2 0x2039 JUMPI PUSH1 0x0 DUP1 REVERT JUMPDEST PUSH2 0x2045 DUP9 DUP3 DUP10 ADD PUSH2 0x1C19 JUMP JUMPDEST SWAP4 POP POP PUSH1 0x60 DUP7 ADD CALLDATALOAD PUSH1 0x1 PUSH1 0x1 PUSH1 0x40 SHL SUB DUP2 GT ISZERO PUSH2 0x2061 JUMPI PUSH1 0x0 DUP1 REVERT JUMPDEST PUSH2 0x206D DUP9 DUP3 DUP10 ADD PUSH2 0x1D37 JUMP JUMPDEST SWAP3 POP POP PUSH2 0x207D DUP8 PUSH1 0x80 DUP9 ADD PUSH2 0x1E3F JUMP JUMPDEST SWAP1 POP SWAP3 SWAP6 POP SWAP3 SWAP6 SWAP1 SWAP4 POP JUMP JUMPDEST PUSH1 0x0 DUP1 PUSH1 0x0 DUP1 PUSH1 0x0 DUP1 PUSH1 0xC0 DUP8 DUP10 SUB SLT ISZERO PUSH2 0x20A2 JUMPI PUSH1 0x0 DUP1 REVERT JUMPDEST DUP7 CALLDATALOAD PUSH1 0x1 PUSH1 0x1 PUSH1 0x40 SHL SUB DUP2 GT ISZERO PUSH2 0x20B8 JUMPI PUSH1 0x0 DUP1 REVERT JUMPDEST PUSH2 0x20C4 DUP10 DUP3 DUP11 ADD PUSH2 0x176C JUMP JUMPDEST SWAP7 POP POP PUSH2 0x20D3 PUSH1 0x20 DUP9 ADD PUSH2 0x1E2A JUMP JUMPDEST SWAP5 POP PUSH2 0x20E1 PUSH1 0x40 DUP9 ADD PUSH2 0x1E2A JUMP JUMPDEST SWAP4 POP PUSH2 0x20EF PUSH1 0x60 DUP9 ADD PUSH2 0x1E2A JUMP JUMPDEST SWAP3 POP PUSH2 0x20FD PUSH1 0x80 DUP9 ADD PUSH2 0x1E2A JUMP JUMPDEST SWAP2 POP PUSH2 0x210B PUSH1 0xA0 DUP9 ADD PUSH2 0x1E2A JUMP JUMPDEST SWAP1 POP SWAP3 SWAP6 POP SWAP3 SWAP6 POP SWAP3 SWAP6 JUMP JUMPDEST PUSH1 0x20 DUP2 MSTORE PUSH1 0x0 PUSH2 0x1889 PUSH1 0x20 DUP4 ADD DUP5 PUSH2 0x18B4 JUMP JUMPDEST PUSH1 0x0 DUP3 MLOAD PUSH2 0x213C DUP2 DUP5 PUSH1 0x20 DUP8 ADD PUSH2 0x1890 JUMP JUMPDEST SWAP2 SWAP1 SWAP2 ADD SWAP3 SWAP2 POP POP JUMP JUMPDEST PUSH1 0x20 DUP1 DUP3 MSTORE PUSH1 0x13 SWAP1 DUP3 ADD MSTORE PUSH19 0x155CD95C88191BD95CC81B9BDD08195E1A5CDD PUSH1 0x6A SHL PUSH1 0x40 DUP3 ADD MSTORE PUSH1 0x60 ADD SWAP1 JUMP JUMPDEST PUSH1 0x1 DUP2 DUP2 SHR SWAP1 DUP3 AND DUP1 PUSH2 0x2187 JUMPI PUSH1 0x7F DUP3 AND SWAP2 POP JUMPDEST PUSH1 0x20 DUP3 LT DUP2 SUB PUSH2 0x21A7 JUMPI PUSH4 0x4E487B71 PUSH1 0xE0 SHL PUSH1 0x0 MSTORE PUSH1 0x22 PUSH1 0x4 MSTORE PUSH1 0x24 PUSH1 0x0 REVERT JUMPDEST POP SWAP2 SWAP1 POP JUMP JUMPDEST PUSH1 0x1F DUP3 GT ISZERO PUSH2 0x21F7 JUMPI DUP1 PUSH1 0x0 MSTORE PUSH1 0x20 PUSH1 0x0 KECCAK256 PUSH1 0x1F DUP5 ADD PUSH1 0x5 SHR DUP2 ADD PUSH1 0x20 DUP6 LT ISZERO PUSH2 0x21D4 JUMPI POP DUP1 JUMPDEST PUSH1 0x1F DUP5 ADD PUSH1 0x5 SHR DUP3 ADD SWAP2 POP JUMPDEST DUP2 DUP2 LT ISZERO PUSH2 0x21F4 JUMPI PUSH1 0x0 DUP2 SSTORE PUSH1 0x1 ADD PUSH2 0x21E0 JUMP JUMPDEST POP POP JUMPDEST POP POP POP JUMP JUMPDEST DUP2 MLOAD PUSH1 0x1 PUSH1 0x1 PUSH1 0x40 SHL SUB DUP2 GT ISZERO PUSH2 0x2215 JUMPI PUSH2 0x2215 PUSH2 0x16DC JUMP JUMPDEST PUSH2 0x2229 DUP2 PUSH2 0x2223 DUP5 SLOAD PUSH2 0x2173 JUMP JUMPDEST DUP5 PUSH2 0x21AD JUMP JUMPDEST PUSH1 0x20 PUSH1 0x1F DUP3 GT PUSH1 0x1 DUP2 EQ PUSH2 0x225D JUMPI PUSH1 0x0 DUP4 ISZERO PUSH2 0x2245 JUMPI POP DUP5 DUP3 ADD MLOAD JUMPDEST PUSH1 0x0 NOT PUSH1 0x3 DUP6 SWAP1 SHL SHR NOT AND PUSH1 0x1 DUP5 SWAP1 SHL OR DUP5 SSTORE PUSH2 0x21F4 JUMP JUMPDEST PUSH1 0x0 DUP5 DUP2 MSTORE PUSH1 0x20 DUP2 KECCAK256 PUSH1 0x1F NOT DUP6 AND SWAP2 JUMPDEST DUP3 DUP2 LT ISZERO PUSH2 0x228D JUMPI DUP8 DUP6 ADD MLOAD DUP3 SSTORE PUSH1 0x20 SWAP5 DUP6 ADD SWAP5 PUSH1 0x1 SWAP1 SWAP3 ADD SWAP2 ADD PUSH2 0x226D JUMP JUMPDEST POP DUP5 DUP3 LT ISZERO PUSH2 0x22AB JUMPI DUP7 DUP5 ADD MLOAD PUSH1 0x0 NOT PUSH1 0x3 DUP8 SWAP1 SHL PUSH1 0xF8 AND SHR NOT AND DUP2 SSTORE JUMPDEST POP POP POP POP PUSH1 0x1 SWAP1 DUP2 SHL ADD SWAP1 SSTORE POP JUMP INVALID LOG2 PUSH5 0x6970667358 0x22 SLT KECCAK256 0xCB TLOAD CALLER PUSH4 0x56CB0208 BLOBBASEFEE 0xFB SHL DUP9 0xAA 0xBE SWAP8 0xBB DUP1 0x4B CHAINID 0xE8 0xE1 SAR 0xD1 0xE8 PUSH14 0x5A59F549C100D564736F6C634300 ADDMOD SHR STOP CALLER "
        },
        "methodIdentifiers": {
          "createUser(string,(string,string,string,string,string,string),(string,string,string,string,string[],string),(string,string,string,string,string),(bool,bool,bool,bool,bool))": "bb6228b0",
          "editUser(string,(string,string,string,string,string,string),(string,string,string,string,string[],string),(string,string,string,string,string),(bool,bool,bool,bool,bool))": "f86a29c7",
          "getUserByAddress(address)": "69c212f6",
          "getUserByUsername(string)": "9f42af63",
          "getUsernameByddress(address)": "d17d15ec",
          "getVisibility(string)": "320ba8f7",
          "setVisibility(string,bool,bool,bool,bool,bool)": "d1577cac"
        }
      }
    }
  }
}