{
  "_format": "hh-sol-artifact-1",
  "contractName": "Identifi",
  "sourceName": "contracts/Identifi.sol",
  "abi": [
    {
      "inputs": [
        {
          "internalType": "string",
          "name": "_username",
          "type": "string"
        },
        {
          "components": [
            {
              "internalType": "string",
              "name": "firstName",
              "type": "string"
            },
            {
              "internalType": "string",
              "name": "lastName",
              "type": "string"
            },
            {
              "internalType": "string",
              "name": "email",
              "type": "string"
            },
            {
              "internalType": "string",
              "name": "homeAddress",
              "type": "string"
            },
            {
              "internalType": "string",
              "name": "phoneNumber",
              "type": "string"
            },
            {
              "internalType": "string",
              "name": "dateOfBirth",
              "type": "string"
            }
          ],
          "internalType": "struct Identifi.BasicInfo",
          "name": "_basicInfo",
          "type": "tuple"
        },
        {
          "components": [
            {
              "internalType": "string",
              "name": "jobTitle",
              "type": "string"
            },
            {
              "internalType": "string",
              "name": "info",
              "type": "string"
            },
            {
              "internalType": "string",
              "name": "education",
              "type": "string"
            },
            {
              "internalType": "string",
              "name": "workHistory",
              "type": "string"
            },
            {
              "internalType": "string[]",
              "name": "skills",
              "type": "string[]"
            },
            {
              "internalType": "string",
              "name": "imageURL",
              "type": "string"
            }
          ],
          "internalType": "struct Identifi.ProfesionalInfo",
          "name": "_profesionalInfo",
          "type": "tuple"
        },
        {
          "components": [
            {
              "internalType": "string",
              "name": "x",
              "type": "string"
            },
            {
              "internalType": "string",
              "name": "instagram",
              "type": "string"
            },
            {
              "internalType": "string",
              "name": "youtube",
              "type": "string"
            },
            {
              "internalType": "string",
              "name": "linkedin",
              "type": "string"
            },
            {
              "internalType": "string",
              "name": "tiktok",
              "type": "string"
            }
          ],
          "internalType": "struct Identifi.SocialLinks",
          "name": "_socialLinks",
          "type": "tuple"
        },
        {
          "components": [
            {
              "internalType": "bool",
              "name": "homeAddress",
              "type": "bool"
            },
            {
              "internalType": "bool",
              "name": "dateOfBirth",
              "type": "bool"
            },
            {
              "internalType": "bool",
              "name": "education",
              "type": "bool"
            },
            {
              "internalType": "bool",
              "name": "workHistory",
              "type": "bool"
            },
            {
              "internalType": "bool",
              "name": "phoneNumber",
              "type": "bool"
            }
          ],
          "internalType": "struct Identifi.Visibility",
          "name": "_visibility",
          "type": "tuple"
        }
      ],
      "name": "createUser",
      "outputs": [],
      "stateMutability": "nonpayable",
      "type": "function"
    },
    {
      "inputs": [
        {
          "internalType": "string",
          "name": "_username",
          "type": "string"
        },
        {
          "components": [
            {
              "internalType": "string",
              "name": "firstName",
              "type": "string"
            },
            {
              "internalType": "string",
              "name": "lastName",
              "type": "string"
            },
            {
              "internalType": "string",
              "name": "email",
              "type": "string"
            },
            {
              "internalType": "string",
              "name": "homeAddress",
              "type": "string"
            },
            {
              "internalType": "string",
              "name": "phoneNumber",
              "type": "string"
            },
            {
              "internalType": "string",
              "name": "dateOfBirth",
              "type": "string"
            }
          ],
          "internalType": "struct Identifi.BasicInfo",
          "name": "_basicInfo",
          "type": "tuple"
        },
        {
          "components": [
            {
              "internalType": "string",
              "name": "jobTitle",
              "type": "string"
            },
            {
              "internalType": "string",
              "name": "info",
              "type": "string"
            },
            {
              "internalType": "string",
              "name": "education",
              "type": "string"
            },
            {
              "internalType": "string",
              "name": "workHistory",
              "type": "string"
            },
            {
              "internalType": "string[]",
              "name": "skills",
              "type": "string[]"
            },
            {
              "internalType": "string",
              "name": "imageURL",
              "type": "string"
            }
          ],
          "internalType": "struct Identifi.ProfesionalInfo",
          "name": "_profesionalInfo",
          "type": "tuple"
        },
        {
          "components": [
            {
              "internalType": "string",
              "name": "x",
              "type": "string"
            },
            {
              "internalType": "string",
              "name": "instagram",
              "type": "string"
            },
            {
              "internalType": "string",
              "name": "youtube",
              "type": "string"
            },
            {
              "internalType": "string",
              "name": "linkedin",
              "type": "string"
            },
            {
              "internalType": "string",
              "name": "tiktok",
              "type": "string"
            }
          ],
          "internalType": "struct Identifi.SocialLinks",
          "name": "_socialLinks",
          "type": "tuple"
        },
        {
          "components": [
            {
              "internalType": "bool",
              "name": "homeAddress",
              "type": "bool"
            },
            {
              "internalType": "bool",
              "name": "dateOfBirth",
              "type": "bool"
            },
            {
              "internalType": "bool",
              "name": "education",
              "type": "bool"
            },
            {
              "internalType": "bool",
              "name": "workHistory",
              "type": "bool"
            },
            {
              "internalType": "bool",
              "name": "phoneNumber",
              "type": "bool"
            }
          ],
          "internalType": "struct Identifi.Visibility",
          "name": "_visibility",
          "type": "tuple"
        }
      ],
      "name": "editUser",
      "outputs": [],
      "stateMutability": "nonpayable",
      "type": "function"
    },
    {
      "inputs": [
        {
          "internalType": "address",
          "name": "_address",
          "type": "address"
        }
      ],
      "name": "getUserByAddress",
      "outputs": [
        {
          "components": [
            {
              "internalType": "string",
              "name": "firstName",
              "type": "string"
            },
            {
              "internalType": "string",
              "name": "lastName",
              "type": "string"
            },
            {
              "internalType": "string",
              "name": "email",
              "type": "string"
            },
            {
              "internalType": "string",
              "name": "homeAddress",
              "type": "string"
            },
            {
              "internalType": "string",
              "name": "phoneNumber",
              "type": "string"
            },
            {
              "internalType": "string",
              "name": "dateOfBirth",
              "type": "string"
            }
          ],
          "internalType": "struct Identifi.BasicInfo",
          "name": "basicInfo",
          "type": "tuple"
        },
        {
          "components": [
            {
              "internalType": "string",
              "name": "jobTitle",
              "type": "string"
            },
            {
              "internalType": "string",
              "name": "info",
              "type": "string"
            },
            {
              "internalType": "string",
              "name": "education",
              "type": "string"
            },
            {
              "internalType": "string",
              "name": "workHistory",
              "type": "string"
            },
            {
              "internalType": "string[]",
              "name": "skills",
              "type": "string[]"
            },
            {
              "internalType": "string",
              "name": "imageURL",
              "type": "string"
            }
          ],
          "internalType": "struct Identifi.ProfesionalInfo",
          "name": "professionalInfo",
          "type": "tuple"
        },
        {
          "components": [
            {
              "internalType": "string",
              "name": "x",
              "type": "string"
            },
            {
              "internalType": "string",
              "name": "instagram",
              "type": "string"
            },
            {
              "internalType": "string",
              "name": "youtube",
              "type": "string"
            },
            {
              "internalType": "string",
              "name": "linkedin",
              "type": "string"
            },
            {
              "internalType": "string",
              "name": "tiktok",
              "type": "string"
            }
          ],
          "internalType": "struct Identifi.SocialLinks",
          "name": "socialLinks",
          "type": "tuple"
        },
        {
          "components": [
            {
              "internalType": "bool",
              "name": "homeAddress",
              "type": "bool"
            },
            {
              "internalType": "bool",
              "name": "dateOfBirth",
              "type": "bool"
            },
            {
              "internalType": "bool",
              "name": "education",
              "type": "bool"
            },
            {
              "internalType": "bool",
              "name": "workHistory",
              "type": "bool"
            },
            {
              "internalType": "bool",
              "name": "phoneNumber",
              "type": "bool"
            }
          ],
          "internalType": "struct Identifi.Visibility",
          "name": "visibility",
          "type": "tuple"
        }
      ],
      "stateMutability": "view",
      "type": "function"
    },
    {
      "inputs": [
        {
          "internalType": "string",
          "name": "_username",
          "type": "string"
        }
      ],
      "name": "getUserByUsername",
      "outputs": [
        {
          "components": [
            {
              "internalType": "string",
              "name": "firstName",
              "type": "string"
            },
            {
              "internalType": "string",
              "name": "lastName",
              "type": "string"
            },
            {
              "internalType": "string",
              "name": "email",
              "type": "string"
            },
            {
              "internalType": "string",
              "name": "homeAddress",
              "type": "string"
            },
            {
              "internalType": "string",
              "name": "phoneNumber",
              "type": "string"
            },
            {
              "internalType": "string",
              "name": "dateOfBirth",
              "type": "string"
            }
          ],
          "internalType": "struct Identifi.BasicInfo",
          "name": "basicInfo",
          "type": "tuple"
        },
        {
          "components": [
            {
              "internalType": "string",
              "name": "jobTitle",
              "type": "string"
            },
            {
              "internalType": "string",
              "name": "info",
              "type": "string"
            },
            {
              "internalType": "string",
              "name": "education",
              "type": "string"
            },
            {
              "internalType": "string",
              "name": "workHistory",
              "type": "string"
            },
            {
              "internalType": "string[]",
              "name": "skills",
              "type": "string[]"
            },
            {
              "internalType": "string",
              "name": "imageURL",
              "type": "string"
            }
          ],
          "internalType": "struct Identifi.ProfesionalInfo",
          "name": "professionalInfo",
          "type": "tuple"
        },
        {
          "components": [
            {
              "internalType": "string",
              "name": "x",
              "type": "string"
            },
            {
              "internalType": "string",
              "name": "instagram",
              "type": "string"
            },
            {
              "internalType": "string",
              "name": "youtube",
              "type": "string"
            },
            {
              "internalType": "string",
              "name": "linkedin",
              "type": "string"
            },
            {
              "internalType": "string",
              "name": "tiktok",
              "type": "string"
            }
          ],
          "internalType": "struct Identifi.SocialLinks",
          "name": "socialLinks",
          "type": "tuple"
        },
        {
          "components": [
            {
              "internalType": "bool",
              "name": "homeAddress",
              "type": "bool"
            },
            {
              "internalType": "bool",
              "name": "dateOfBirth",
              "type": "bool"
            },
            {
              "internalType": "bool",
              "name": "education",
              "type": "bool"
            },
            {
              "internalType": "bool",
              "name": "workHistory",
              "type": "bool"
            },
            {
              "internalType": "bool",
              "name": "phoneNumber",
              "type": "bool"
            }
          ],
          "internalType": "struct Identifi.Visibility",
          "name": "visibility",
          "type": "tuple"
        }
      ],
      "stateMutability": "view",
      "type": "function"
    },
    {
      "inputs": [
        {
          "internalType": "address",
          "name": "_address",
          "type": "address"
        }
      ],
      "name": "getUsernameByddress",
      "outputs": [
        {
          "internalType": "string",
          "name": "",
          "type": "string"
        }
      ],
      "stateMutability": "view",
      "type": "function"
    },
    {
      "inputs": [
        {
          "internalType": "string",
          "name": "_username",
          "type": "string"
        }
      ],
      "name": "getVisibility",
      "outputs": [
        {
          "components": [
            {
              "internalType": "bool",
              "name": "homeAddress",
              "type": "bool"
            },
            {
              "internalType": "bool",
              "name": "dateOfBirth",
              "type": "bool"
            },
            {
              "internalType": "bool",
              "name": "education",
              "type": "bool"
            },
            {
              "internalType": "bool",
              "name": "workHistory",
              "type": "bool"
            },
            {
              "internalType": "bool",
              "name": "phoneNumber",
              "type": "bool"
            }
          ],
          "internalType": "struct Identifi.Visibility",
          "name": "",
          "type": "tuple"
        }
      ],
      "stateMutability": "view",
      "type": "function"
    },
    {
      "inputs": [
        {
          "internalType": "string",
          "name": "_username",
          "type": "string"
        },
        {
          "internalType": "bool",
          "name": "education",
          "type": "bool"
        },
        {
          "internalType": "bool",
          "name": "workHistory",
          "type": "bool"
        },
        {
          "internalType": "bool",
          "name": "phoneNumber",
          "type": "bool"
        },
        {
          "internalType": "bool",
          "name": "dateOfBirth",
          "type": "bool"
        },
        {
          "internalType": "bool",
          "name": "homeAddress",
          "type": "bool"
        }
      ],
      "name": "setVisibility",
      "outputs": [],
      "stateMutability": "nonpayable",
      "type": "function"
    }
  ],
  "bytecode": "0x6080604052348015600f57600080fd5b506122f08061001f6000396000f3fe608060405234801561001057600080fd5b506004361061007d5760003560e01c8063bb6228b01161005b578063bb6228b0146100e1578063d1577cac146100f6578063d17d15ec14610109578063f86a29c71461012957600080fd5b8063320ba8f71461008257806369c212f6146100ab5780639f42af63146100ce575b600080fd5b6100956100903660046117db565b61013c565b6040516100a29190611817565b60405180910390f35b6100be6100b9366004611860565b61022f565b6040516100a29493929190611a4c565b6100be6100dc3660046117db565b6103ba565b6100f46100ef366004611eb0565b610f68565b005b6100f4610104366004612089565b611251565b61011c610117366004611860565b611320565b6040516100a29190612117565b6100f4610137366004611eb0565b6113cc565b6040805160a081018252600080825260208201819052918101829052606081018290526080810191909152600082604051610177919061212a565b9081526040519081900360200190206012015460ff166101b25760405162461bcd60e51b81526004016101a990612146565b60405180910390fd5b6000826040516101c2919061212a565b90815260408051918290036020908101832060a0840183526014015460ff8082161515855261010082048116151592850192909252620100008104821615159284019290925263010000008204811615156060840152640100000000909104161515608082015292915050565b6102686040518060c001604052806060815260200160608152602001606081526020016060815260200160608152602001606081525090565b6102a16040518060c001604052806060815260200160608152602001606081526020016060815260200160608152602001606081525090565b6102d36040518060a0016040528060608152602001606081526020016060815260200160608152602001606081525090565b6040805160a0810182526000808252602082018190529181018290526060810182905260808101919091526001600160a01b0385166000908152600160205260408120805461032190612173565b80601f016020809104026020016040519081016040528092919081815260200182805461034d90612173565b801561039a5780601f1061036f5761010080835404028352916020019161039a565b820191906000526020600020905b81548152906001019060200180831161037d57829003601f168201915b505050505090506103aa816103ba565b9450945094509450509193509193565b6103f36040518060c001604052806060815260200160608152602001606081526020016060815260200160608152602001606081525090565b61042c6040518060c001604052806060815260200160608152602001606081526020016060815260200160608152602001606081525090565b61045e6040518060a0016040528060608152602001606081526020016060815260200160608152602001606081525090565b6040805160a081018252600080825260208201819052918101829052606081018290526080810191909152600085604051610499919061212a565b9081526040519081900360200190206012015460ff166104cb5760405162461bcd60e51b81526004016101a990612146565b600080866040516104dc919061212a565b908152602001604051809103902090506040518060c0016040528082600001805461050690612173565b80601f016020809104026020016040519081016040528092919081815260200182805461053290612173565b801561057f5780601f106105545761010080835404028352916020019161057f565b820191906000526020600020905b81548152906001019060200180831161056257829003601f168201915b5050505050815260200182600101805461059890612173565b80601f01602080910402602001604051908101604052809291908181526020018280546105c490612173565b80156106115780601f106105e657610100808354040283529160200191610611565b820191906000526020600020905b8154815290600101906020018083116105f457829003601f168201915b5050505050815260200182600301805461062a90612173565b80601f016020809104026020016040519081016040528092919081815260200182805461065690612173565b80156106a35780601f10610678576101008083540402835291602001916106a3565b820191906000526020600020905b81548152906001019060200180831161068657829003601f168201915b505050505081526020018260040180546106bc90612173565b80601f01602080910402602001604051908101604052809291908181526020018280546106e890612173565b80156107355780601f1061070a57610100808354040283529160200191610735565b820191906000526020600020905b81548152906001019060200180831161071857829003601f168201915b5050505050815260200182600501805461074e90612173565b80601f016020809104026020016040519081016040528092919081815260200182805461077a90612173565b80156107c75780601f1061079c576101008083540402835291602001916107c7565b820191906000526020600020905b8154815290600101906020018083116107aa57829003601f168201915b505050505081526020018260060180546107e090612173565b80601f016020809104026020016040519081016040528092919081815260200182805461080c90612173565b80156108595780601f1061082e57610100808354040283529160200191610859565b820191906000526020600020905b81548152906001019060200180831161083c57829003601f168201915b505050505081525094506040518060c0016040528082600d01805461087d90612173565b80601f01602080910402602001604051908101604052809291908181526020018280546108a990612173565b80156108f65780601f106108cb576101008083540402835291602001916108f6565b820191906000526020600020905b8154815290600101906020018083116108d957829003601f168201915b5050505050815260200182600f01805461090f90612173565b80601f016020809104026020016040519081016040528092919081815260200182805461093b90612173565b80156109885780601f1061095d57610100808354040283529160200191610988565b820191906000526020600020905b81548152906001019060200180831161096b57829003601f168201915b5050505050815260200182600e0180546109a190612173565b80601f01602080910402602001604051908101604052809291908181526020018280546109cd90612173565b8015610a1a5780601f106109ef57610100808354040283529160200191610a1a565b820191906000526020600020905b8154815290600101906020018083116109fd57829003601f168201915b50505050508152602001826007018054610a3390612173565b80601f0160208091040260200160405190810160405280929190818152602001828054610a5f90612173565b8015610aac5780601f10610a8157610100808354040283529160200191610aac565b820191906000526020600020905b815481529060010190602001808311610a8f57829003601f168201915b5050505050815260200182601001805480602002602001604051908101604052809291908181526020016000905b82821015610b86578382906000526020600020018054610af990612173565b80601f0160208091040260200160405190810160405280929190818152602001828054610b2590612173565b8015610b725780601f10610b4757610100808354040283529160200191610b72565b820191906000526020600020905b815481529060010190602001808311610b5557829003601f168201915b505050505081526020019060010190610ada565b505050508152602001826011018054610b9e90612173565b80601f0160208091040260200160405190810160405280929190818152602001828054610bca90612173565b8015610c175780601f10610bec57610100808354040283529160200191610c17565b820191906000526020600020905b815481529060010190602001808311610bfa57829003601f168201915b505050505081525093506040518060a00160405280826008018054610c3b90612173565b80601f0160208091040260200160405190810160405280929190818152602001828054610c6790612173565b8015610cb45780601f10610c8957610100808354040283529160200191610cb4565b820191906000526020600020905b815481529060010190602001808311610c9757829003601f168201915b50505050508152602001826009018054610ccd90612173565b80601f0160208091040260200160405190810160405280929190818152602001828054610cf990612173565b8015610d465780601f10610d1b57610100808354040283529160200191610d46565b820191906000526020600020905b815481529060010190602001808311610d2957829003601f168201915b5050505050815260200182600a018054610d5f90612173565b80601f0160208091040260200160405190810160405280929190818152602001828054610d8b90612173565b8015610dd85780601f10610dad57610100808354040283529160200191610dd8565b820191906000526020600020905b815481529060010190602001808311610dbb57829003601f168201915b5050505050815260200182600b018054610df190612173565b80601f0160208091040260200160405190810160405280929190818152602001828054610e1d90612173565b8015610e6a5780601f10610e3f57610100808354040283529160200191610e6a565b820191906000526020600020905b815481529060010190602001808311610e4d57829003601f168201915b5050505050815260200182600c018054610e8390612173565b80601f0160208091040260200160405190810160405280929190818152602001828054610eaf90612173565b8015610efc5780601f10610ed157610100808354040283529160200191610efc565b820191906000526020600020905b815481529060010190602001808311610edf57829003601f168201915b5050509190925250506040805160a08101825260149093015460ff80821615158552610100820481161515602086015262010000820481161515928501929092526301000000810482161515606085015264010000000090041615156080830152949693955092915050565b84600281604051610f79919061212a565b9081526040519081900360200190205460ff1615610fd95760405162461bcd60e51b815260206004820152601860248201527f557365726e616d6520616c7265616479206578697374732e000000000000000060448201526064016101a9565b60008087604051610fea919061212a565b9081526040519081900360200190208651909150819061100a90826121fc565b506020860151600182019061101f90826121fc565b506002810161102e88826121fc565b506040860151600382019061104390826121fc565b506060860151600482019061105890826121fc565b5060a0860151600682019061106d90826121fc565b506080860151600582019061108290826121fc565b508351600882019061109490826121fc565b50602084015160098201906110a990826121fc565b506040840151600a8201906110be90826121fc565b506060840151600b8201906110d390826121fc565b506080840151600c8201906110e890826121fc565b508451600d8201906110fa90826121fc565b506040850151600e82019061110f90826121fc565b506060850151600782019061112490826121fc565b506020850151600f82019061113990826121fc565b5060808501518051611155916010840191602090910190611617565b5060a0850151601182019061116a90826121fc565b50825160148201805460208087015160408089015160608a015160808b015115156401000000000264ff000000001991151563010000000263ff0000001993151562010000029390931663ffff0000199515156101000261ff00199a15159a909a1661ffff199098169790971798909817939093169490941793909317169390931790915560128301805460ff191660019081179091553360009081529252902061121588826121fc565b506001600288604051611228919061212a565b908152604051908190036020019020805491151560ff1990921691909117905550505050505050565b600086604051611261919061212a565b9081526040519081900360200190206012015460ff166112935760405162461bcd60e51b81526004016101a990612146565b600080876040516112a4919061212a565b908152604051602091819003919091019020601401805463ffff00001916620100009715159790970263ff0000001916969096176301000000951515959095029490941764ff0000ff0019166401000000009315159390930261ff00191692909217610100911515919091021760ff1916901515179091555050565b6001600160a01b038116600090815260016020526040902080546060919061134790612173565b80601f016020809104026020016040519081016040528092919081815260200182805461137390612173565b80156113c05780601f10611395576101008083540402835291602001916113c0565b820191906000526020600020905b8154815290600101906020018083116113a357829003601f168201915b50505050509050919050565b6000856040516113dc919061212a565b9081526040519081900360200190206012015460ff1661140e5760405162461bcd60e51b81526004016101a990612146565b6000808660405161141f919061212a565b9081526040519081900360200190208551909150819061143f90826121fc565b506020850151600182019061145490826121fc565b506040850151600382019061146990826121fc565b506060850151600482019061147e90826121fc565b5060a0850151600682019061149390826121fc565b50608085015160058201906114a890826121fc565b50825160088201906114ba90826121fc565b50602083015160098201906114cf90826121fc565b506040830151600a8201906114e490826121fc565b506060830151600b8201906114f990826121fc565b506080830151600c82019061150e90826121fc565b508351600d82019061152090826121fc565b506040840151600e82019061153590826121fc565b506060840151600782019061154a90826121fc565b506020840151600f82019061155f90826121fc565b506080840151805161157b916010840191602090910190611617565b5060a0840151601182019061159090826121fc565b5081516014909101805460208401516040850151606086015160809096015115156401000000000264ff000000001996151563010000000263ff0000001992151562010000029290921663ffff0000199315156101000261ff00199715159790971661ffff1990951694909417959095179190911691909117179290921617905550505050565b82805482825590600052602060002090810192821561165d579160200282015b8281111561165d578251829061164d90826121fc565b5091602001919060010190611637565b5061166992915061166d565b5090565b80821115611669576000611681828261168a565b5060010161166d565b50805461169690612173565b6000825580601f106116a6575050565b601f0160209004906000526020600020908101906116c491906116c7565b50565b5b8082111561166957600081556001016116c8565b634e487b7160e01b600052604160045260246000fd5b60405160c081016001600160401b0381118282101715611714576117146116dc565b60405290565b60405160a081016001600160401b0381118282101715611714576117146116dc565b604051601f8201601f191681016001600160401b0381118282101715611764576117646116dc565b604052919050565b600082601f83011261177d57600080fd5b81356001600160401b03811115611796576117966116dc565b6117a9601f8201601f191660200161173c565b8181528460208386010111156117be57600080fd5b816020850160208301376000918101602001919091529392505050565b6000602082840312156117ed57600080fd5b81356001600160401b0381111561180357600080fd5b61180f8482850161176c565b949350505050565b60a0810161185a82848051151582526020810151151560208301526040810151151560408301526060810151151560608301526080810151151560808301525050565b92915050565b60006020828403121561187257600080fd5b81356001600160a01b038116811461188957600080fd5b9392505050565b60005b838110156118ab578181015183820152602001611893565b50506000910152565b600081518084526118cc816020860160208601611890565b601f01601f19169290920160200192915050565b6000815160c084526118f560c08501826118b4565b90506020830151848203602086015261190e82826118b4565b9150506040830151848203604086015261192882826118b4565b9150506060830151848203606086015261194282826118b4565b9150506080830151848203608086015281815180845260208401915060208160051b85010160208401935060005b828110156119a157601f1986830301845261198c8286516118b4565b60209586019594909401939150600101611970565b5060a0870151945087810360a08901526119bb81866118b4565b98975050505050505050565b6000815160a084526119dc60a08501826118b4565b9050602083015184820360208601526119f582826118b4565b91505060408301518482036040860152611a0f82826118b4565b91505060608301518482036060860152611a2982826118b4565b91505060808301518482036080860152611a4382826118b4565b95945050505050565b61010081526000855160c0610100840152611a6b6101c08401826118b4565b9050602087015160ff1984830301610120850152611a8982826118b4565b915050604087015160ff1984830301610140850152611aa882826118b4565b915050606087015160ff1984830301610160850152611ac782826118b4565b915050608087015160ff1984830301610180850152611ae682826118b4565b91505060a087015160ff19848303016101a0850152611b0582826118b4565b9150508281036020840152611b1a81876118e0565b90508281036040840152611b2e81866119c7565b915050611a4360608301848051151582526020810151151560208301526040810151151560408301526060810151151560608301526080810151151560808301525050565b600082601f830112611b8457600080fd5b81356001600160401b03811115611b9d57611b9d6116dc565b8060051b611bad6020820161173c565b91825260208185018101929081019086841115611bc957600080fd5b6020860192505b83831015611c0f5782356001600160401b03811115611bee57600080fd5b611bfd886020838a010161176c565b83525060209283019290910190611bd0565b9695505050505050565b600060c08284031215611c2b57600080fd5b611c336116f2565b905081356001600160401b03811115611c4b57600080fd5b611c578482850161176c565b82525060208201356001600160401b03811115611c7357600080fd5b611c7f8482850161176c565b60208301525060408201356001600160401b03811115611c9e57600080fd5b611caa8482850161176c565b60408301525060608201356001600160401b03811115611cc957600080fd5b611cd58482850161176c565b60608301525060808201356001600160401b03811115611cf457600080fd5b611d0084828501611b73565b60808301525060a08201356001600160401b03811115611d1f57600080fd5b611d2b8482850161176c565b60a08301525092915050565b600060a08284031215611d4957600080fd5b611d5161171a565b905081356001600160401b03811115611d6957600080fd5b611d758482850161176c565b82525060208201356001600160401b03811115611d9157600080fd5b611d9d8482850161176c565b60208301525060408201356001600160401b03811115611dbc57600080fd5b611dc88482850161176c565b60408301525060608201356001600160401b03811115611de757600080fd5b611df38482850161176c565b60608301525060808201356001600160401b03811115611e1257600080fd5b611e1e8482850161176c565b60808301525092915050565b80358015158114611e3a57600080fd5b919050565b600060a08284031215611e5157600080fd5b611e5961171a565b9050611e6482611e2a565b8152611e7260208301611e2a565b6020820152611e8360408301611e2a565b6040820152611e9460608301611e2a565b6060820152611ea560808301611e2a565b608082015292915050565b60008060008060006101208688031215611ec957600080fd5b85356001600160401b03811115611edf57600080fd5b611eeb8882890161176c565b95505060208601356001600160401b03811115611f0757600080fd5b860160c08189031215611f1957600080fd5b611f216116f2565b81356001600160401b03811115611f3757600080fd5b611f438a82850161176c565b82525060208201356001600160401b03811115611f5f57600080fd5b611f6b8a82850161176c565b60208301525060408201356001600160401b03811115611f8a57600080fd5b611f968a82850161176c565b60408301525060608201356001600160401b03811115611fb557600080fd5b611fc18a82850161176c565b60608301525060808201356001600160401b03811115611fe057600080fd5b611fec8a82850161176c565b60808301525060a08201356001600160401b0381111561200b57600080fd5b6120178a82850161176c565b60a08301525094505060408601356001600160401b0381111561203957600080fd5b61204588828901611c19565b93505060608601356001600160401b0381111561206157600080fd5b61206d88828901611d37565b92505061207d8760808801611e3f565b90509295509295909350565b60008060008060008060c087890312156120a257600080fd5b86356001600160401b038111156120b857600080fd5b6120c489828a0161176c565b9650506120d360208801611e2a565b94506120e160408801611e2a565b93506120ef60608801611e2a565b92506120fd60808801611e2a565b915061210b60a08801611e2a565b90509295509295509295565b60208152600061188960208301846118b4565b6000825161213c818460208701611890565b9190910192915050565b602080825260139082015272155cd95c88191bd95cc81b9bdd08195e1a5cdd606a1b604082015260600190565b600181811c9082168061218757607f821691505b6020821081036121a757634e487b7160e01b600052602260045260246000fd5b50919050565b601f8211156121f757806000526020600020601f840160051c810160208510156121d45750805b601f840160051c820191505b818110156121f457600081556001016121e0565b50505b505050565b81516001600160401b03811115612215576122156116dc565b612229816122238454612173565b846121ad565b6020601f82116001811461225d57600083156122455750848201515b600019600385901b1c1916600184901b1784556121f4565b600084815260208120601f198516915b8281101561228d578785015182556020948501946001909201910161226d565b50848210156122ab5786840151600019600387901b60f8161c191681555b50505050600190811b0190555056fea2646970667358221220cb5c336356cb02084afb1b88aabe97bb804b46e8e11dd1e86d5a59f549c100d564736f6c634300081c0033",
  "linkReferences": {},
  "deployedLinkReferences": {}
}